{
  "contractName": "Election",
  "abi": [
    {
      "inputs": [],
      "stateMutability": "nonpayable",
      "type": "constructor"
    },
    {
      "anonymous": false,
      "inputs": [
        {
          "indexed": true,
          "internalType": "uint256",
          "name": "_candidateId",
          "type": "uint256"
        }
      ],
      "name": "votedEvent",
      "type": "event"
    },
    {
      "inputs": [
        {
          "internalType": "uint256",
          "name": "",
          "type": "uint256"
        }
      ],
      "name": "candidates",
      "outputs": [
        {
          "internalType": "uint256",
          "name": "id",
          "type": "uint256"
        },
        {
          "internalType": "string",
          "name": "name",
          "type": "string"
        },
        {
          "internalType": "uint256",
          "name": "voteCount",
          "type": "uint256"
        },
        {
          "internalType": "address",
          "name": "creator",
          "type": "address"
        },
        {
          "internalType": "string",
          "name": "summary",
          "type": "string"
        }
      ],
      "stateMutability": "view",
      "type": "function",
      "constant": true
    },
    {
      "inputs": [],
      "name": "candidatesCount",
      "outputs": [
        {
          "internalType": "uint256",
          "name": "",
          "type": "uint256"
        }
      ],
      "stateMutability": "view",
      "type": "function",
      "constant": true
    },
    {
      "inputs": [
        {
          "internalType": "uint256",
          "name": "",
          "type": "uint256"
        }
      ],
      "name": "creators",
      "outputs": [
        {
          "internalType": "address",
          "name": "",
          "type": "address"
        }
      ],
      "stateMutability": "view",
      "type": "function",
      "constant": true
    },
    {
      "inputs": [
        {
          "internalType": "uint256",
          "name": "",
          "type": "uint256"
        }
      ],
      "name": "summary",
      "outputs": [
        {
          "internalType": "string",
          "name": "",
          "type": "string"
        }
      ],
      "stateMutability": "view",
      "type": "function",
      "constant": true
    },
    {
      "inputs": [
        {
          "internalType": "address",
          "name": "",
          "type": "address"
        }
      ],
      "name": "voters",
      "outputs": [
        {
          "internalType": "bool",
          "name": "",
          "type": "bool"
        }
      ],
      "stateMutability": "view",
      "type": "function",
      "constant": true
    },
    {
      "inputs": [
        {
          "internalType": "uint256",
          "name": "_candidateId",
          "type": "uint256"
        }
      ],
      "name": "vote",
      "outputs": [],
      "stateMutability": "nonpayable",
      "type": "function"
    }
  ],
  "bytecode": "0x60806040523480156200001157600080fd5b506000339050620000946040518060400160405280601181526020017f436c69636b2042617365642047616d6573000000000000000000000000000000815250826040518060400160405280600881526020017f436c69636b696e670000000000000000000000000000000000000000000000008152506200011860201b60201c565b620001116040518060400160405280601481526020017f4b6579626f6172642042617365642047616d6573000000000000000000000000815250826040518060400160405280600881526020017f4b6579626f6172640000000000000000000000000000000000000000000000008152506200011860201b60201c565b50620003c4565b600260008154809291906200012d9062000311565b91905055506040518060a001604052806002548152602001848152602001600081526020018373ffffffffffffffffffffffffffffffffffffffff16815260200182815250600160006002548152602001908152602001600020600082015181600001556020820151816001019080519060200190620001af92919062000228565b506040820151816002015560608201518160030160006101000a81548173ffffffffffffffffffffffffffffffffffffffff021916908373ffffffffffffffffffffffffffffffffffffffff16021790555060808201518160040190805190602001906200021f92919062000228565b50905050505050565b82805462000236906200038e565b90600052602060002090601f0160209004810192826200025a5760008555620002a6565b82601f106200027557805160ff1916838001178555620002a6565b82800160010185558215620002a6579182015b82811115620002a557825182559160200191906001019062000288565b5b509050620002b59190620002b9565b5090565b5b80821115620002d4576000816000905550600101620002ba565b5090565b7f4e487b7100000000000000000000000000000000000000000000000000000000600052601160045260246000fd5b6000819050919050565b60006200031e8262000307565b91507fffffffffffffffffffffffffffffffffffffffffffffffffffffffffffffffff821415620003545762000353620002d8565b5b600182019050919050565b7f4e487b7100000000000000000000000000000000000000000000000000000000600052602260045260246000fd5b60006002820490506001821680620003a757607f821691505b60208210811415620003be57620003bd6200035f565b5b50919050565b61089080620003d46000396000f3fe608060405234801561001057600080fd5b50600436106100625760003560e01c80630121b93f146100675780632d35a8a2146100835780633477ee2e146100a15780636152e655146100d5578063a3ec138d14610105578063cd53d08e14610135575b600080fd5b610081600480360381019061007c9190610523565b610165565b005b61008b610289565b604051610098919061055f565b60405180910390f35b6100bb60048036038101906100b69190610523565b61028f565b6040516100cc959493929190610654565b60405180910390f35b6100ef60048036038101906100ea9190610523565b6103f5565b6040516100fc91906106b5565b60405180910390f35b61011f600480360381019061011a9190610703565b610495565b60405161012c919061074b565b60405180910390f35b61014f600480360381019061014a9190610523565b6104b5565b60405161015c9190610766565b60405180910390f35b6000803373ffffffffffffffffffffffffffffffffffffffff1673ffffffffffffffffffffffffffffffffffffffff16815260200190815260200160002060009054906101000a900460ff16156101bb57600080fd5b6000811180156101cd57506002548111155b6101d657600080fd5b60016000803373ffffffffffffffffffffffffffffffffffffffff1673ffffffffffffffffffffffffffffffffffffffff16815260200190815260200160002060006101000a81548160ff021916908315150217905550600160008281526020019081526020016000206002016000815480929190610254906107b0565b9190505550807ffff3c900d938d21d0990d786e819f29b8d05c1ef587b462b939609625b684b1660405160405180910390a250565b60025481565b60016020528060005260406000206000915090508060000154908060010180546102b890610828565b80601f01602080910402602001604051908101604052809291908181526020018280546102e490610828565b80156103315780601f1061030657610100808354040283529160200191610331565b820191906000526020600020905b81548152906001019060200180831161031457829003601f168201915b5050505050908060020154908060030160009054906101000a900473ffffffffffffffffffffffffffffffffffffffff169080600401805461037290610828565b80601f016020809104026020016040519081016040528092919081815260200182805461039e90610828565b80156103eb5780601f106103c0576101008083540402835291602001916103eb565b820191906000526020600020905b8154815290600101906020018083116103ce57829003601f168201915b5050505050905085565b6004602052806000526040600020600091509050805461041490610828565b80601f016020809104026020016040519081016040528092919081815260200182805461044090610828565b801561048d5780601f106104625761010080835404028352916020019161048d565b820191906000526020600020905b81548152906001019060200180831161047057829003601f168201915b505050505081565b60006020528060005260406000206000915054906101000a900460ff1681565b60036020528060005260406000206000915054906101000a900473ffffffffffffffffffffffffffffffffffffffff1681565b600080fd5b6000819050919050565b610500816104ed565b811461050b57600080fd5b50565b60008135905061051d816104f7565b92915050565b600060208284031215610539576105386104e8565b5b60006105478482850161050e565b91505092915050565b610559816104ed565b82525050565b60006020820190506105746000830184610550565b92915050565b600081519050919050565b600082825260208201905092915050565b60005b838110156105b4578082015181840152602081019050610599565b838111156105c3576000848401525b50505050565b6000601f19601f8301169050919050565b60006105e58261057a565b6105ef8185610585565b93506105ff818560208601610596565b610608816105c9565b840191505092915050565b600073ffffffffffffffffffffffffffffffffffffffff82169050919050565b600061063e82610613565b9050919050565b61064e81610633565b82525050565b600060a0820190506106696000830188610550565b818103602083015261067b81876105da565b905061068a6040830186610550565b6106976060830185610645565b81810360808301526106a981846105da565b90509695505050505050565b600060208201905081810360008301526106cf81846105da565b905092915050565b6106e081610633565b81146106eb57600080fd5b50565b6000813590506106fd816106d7565b92915050565b600060208284031215610719576107186104e8565b5b6000610727848285016106ee565b91505092915050565b60008115159050919050565b61074581610730565b82525050565b6000602082019050610760600083018461073c565b92915050565b600060208201905061077b6000830184610645565b92915050565b7f4e487b7100000000000000000000000000000000000000000000000000000000600052601160045260246000fd5b60006107bb826104ed565b91507fffffffffffffffffffffffffffffffffffffffffffffffffffffffffffffffff8214156107ee576107ed610781565b5b600182019050919050565b7f4e487b7100000000000000000000000000000000000000000000000000000000600052602260045260246000fd5b6000600282049050600182168061084057607f821691505b60208210811415610854576108536107f9565b5b5091905056fea26469706673582212203b4cec9a742769b17dda53702c7d855b62cf5bb7c3fbef0cbfb3c322fef6e20664736f6c634300080a0033",
  "immutableReferences": {},
  "source": "pragma solidity ^0.8.0;\r\n\r\ncontract Election {\r\n    // Model a Candidate\r\n    struct Candidate {\r\n        uint id;\r\n        string name;\r\n        uint voteCount;\r\n        address creator;\r\n        string summary;\r\n    }\r\n\r\n    // Store accounts that have voted\r\n    mapping(address => bool) public voters;\r\n    // Read/write candidates\r\n    mapping(uint => Candidate) public candidates;\r\n    // Store Candidates Count\r\n    uint public candidatesCount;\r\n    //Store Creators\r\n    mapping(uint => address) public creators;\r\n    //Store summary\r\n    mapping(uint => string) public summary;\r\n\r\n    event votedEvent (\r\n        uint indexed _candidateId\r\n    );\r\n\r\n    constructor () public {\r\n        address currentState = msg.sender;\r\n        addCandidate(\"Click Based Games\",currentState, \"Clicking\");\r\n        addCandidate(\"Keyboard Based Games\",currentState, \"Keyboard\");\r\n    }\r\n\r\n    function addCandidate (string memory _name, address _creator, string memory _summary) private {\r\n        candidatesCount ++;\r\n        candidates[candidatesCount] = Candidate(candidatesCount, _name, 0, _creator, _summary);\r\n    }\r\n\r\n    function vote (uint _candidateId) public {\r\n        // require that they haven't voted before\r\n        require(!voters[msg.sender]);\r\n\r\n        // require a valid candidate\r\n        require(_candidateId > 0 && _candidateId <= candidatesCount);\r\n\r\n        // record that voter has voted\r\n        voters[msg.sender] = true;\r\n\r\n        // update candidate vote Count\r\n        candidates[_candidateId].voteCount ++;\r\n        // trigger voted event\r\n        emit votedEvent(_candidateId);\r\n    }\r\n}",
  "sourcePath": "C:\\Users\\nolan\\345pi\\contracts\\election.sol",
  "compiler": {
    "name": "solc",
    "version": "0.8.10+commit.fc410830.Emscripten.clang"
  },
  "schemaVersion": "3.4.3",
  "updatedAt": "2021-11-21T18:33:29.900Z",
  "networkType": "ethereum",
  "devdoc": {
    "kind": "dev",
    "methods": {},
    "version": 1
  },
  "userdoc": {
    "kind": "user",
    "methods": {},
    "version": 1
  }
}