{
  "contractName": "Election",
  "abi": [
    {
      "inputs": [],
      "stateMutability": "nonpayable",
      "type": "constructor"
    },
    {
      "anonymous": false,
      "inputs": [
        {
          "indexed": true,
          "internalType": "uint256",
          "name": "_candidateId",
          "type": "uint256"
        }
      ],
      "name": "votedEvent",
      "type": "event"
    },
    {
      "inputs": [
        {
          "internalType": "uint256",
          "name": "",
          "type": "uint256"
        }
      ],
      "name": "candidates",
      "outputs": [
        {
          "internalType": "uint256",
          "name": "id",
          "type": "uint256"
        },
        {
          "internalType": "string",
          "name": "name",
          "type": "string"
        },
        {
          "internalType": "uint256",
          "name": "voteCount",
          "type": "uint256"
        },
        {
          "internalType": "address",
          "name": "creator",
          "type": "address"
        },
        {
          "internalType": "string",
          "name": "summary",
          "type": "string"
        }
      ],
      "stateMutability": "view",
      "type": "function"
    },
    {
      "inputs": [],
      "name": "candidatesCount",
      "outputs": [
        {
          "internalType": "uint256",
          "name": "",
          "type": "uint256"
        }
      ],
      "stateMutability": "view",
      "type": "function"
    },
    {
      "inputs": [
        {
          "internalType": "uint256",
          "name": "",
          "type": "uint256"
        }
      ],
      "name": "creators",
      "outputs": [
        {
          "internalType": "address",
          "name": "",
          "type": "address"
        }
      ],
      "stateMutability": "view",
      "type": "function"
    },
    {
      "inputs": [
        {
          "internalType": "uint256",
          "name": "",
          "type": "uint256"
        }
      ],
      "name": "summary",
      "outputs": [
        {
          "internalType": "string",
          "name": "",
          "type": "string"
        }
      ],
      "stateMutability": "view",
      "type": "function"
    },
    {
      "inputs": [
        {
          "internalType": "address",
          "name": "",
          "type": "address"
        }
      ],
      "name": "voters",
      "outputs": [
        {
          "internalType": "bool",
          "name": "",
          "type": "bool"
        }
      ],
      "stateMutability": "view",
      "type": "function"
    },
    {
      "inputs": [
        {
          "internalType": "string",
          "name": "s",
          "type": "string"
        }
      ],
      "name": "setGreeting",
      "outputs": [],
      "stateMutability": "nonpayable",
      "type": "function"
    },
    {
      "inputs": [],
      "name": "getGreeting",
      "outputs": [
        {
          "internalType": "string",
          "name": "",
          "type": "string"
        }
      ],
      "stateMutability": "view",
      "type": "function"
    },
    {
      "inputs": [
        {
          "internalType": "uint256",
          "name": "_candidateId",
          "type": "uint256"
        }
      ],
      "name": "vote",
      "outputs": [],
      "stateMutability": "nonpayable",
      "type": "function"
    }
  ],
  "bytecode": "0x60806040526040518060400160405280600b81526020017f48656c6c6f20576f726c64000000000000000000000000000000000000000000815250600090805190602001906200005192919062000276565b503480156200005f57600080fd5b506000339050620000e26040518060400160405280601181526020017f436c69636b2042617365642047616d6573000000000000000000000000000000815250826040518060400160405280600881526020017f436c69636b696e670000000000000000000000000000000000000000000000008152506200016660201b60201c565b6200015f6040518060400160405280601481526020017f4b6579626f6172642042617365642047616d6573000000000000000000000000815250826040518060400160405280600881526020017f4b6579626f6172640000000000000000000000000000000000000000000000008152506200016660201b60201c565b5062000412565b600360008154809291906200017b906200035f565b91905055506040518060a001604052806003548152602001848152602001600081526020018373ffffffffffffffffffffffffffffffffffffffff16815260200182815250600260006003548152602001908152602001600020600082015181600001556020820151816001019080519060200190620001fd92919062000276565b506040820151816002015560608201518160030160006101000a81548173ffffffffffffffffffffffffffffffffffffffff021916908373ffffffffffffffffffffffffffffffffffffffff16021790555060808201518160040190805190602001906200026d92919062000276565b50905050505050565b8280546200028490620003dc565b90600052602060002090601f016020900481019282620002a85760008555620002f4565b82601f10620002c357805160ff1916838001178555620002f4565b82800160010185558215620002f4579182015b82811115620002f3578251825591602001919060010190620002d6565b5b50905062000303919062000307565b5090565b5b808211156200032257600081600090555060010162000308565b5090565b7f4e487b7100000000000000000000000000000000000000000000000000000000600052601160045260246000fd5b6000819050919050565b60006200036c8262000355565b91507fffffffffffffffffffffffffffffffffffffffffffffffffffffffffffffffff821415620003a257620003a162000326565b5b600182019050919050565b7f4e487b7100000000000000000000000000000000000000000000000000000000600052602260045260246000fd5b60006002820490506001821680620003f557607f821691505b602082108114156200040c576200040b620003ad565b5b50919050565b610bcd80620004226000396000f3fe608060405234801561001057600080fd5b50600436106100885760003560e01c8063a3ec138d1161005b578063a3ec138d1461012b578063a41368621461015b578063cd53d08e14610177578063fe50cc72146101a757610088565b80630121b93f1461008d5780632d35a8a2146100a95780633477ee2e146100c75780636152e655146100fb575b600080fd5b6100a760048036038101906100a291906106e2565b6101c5565b005b6100b16102ea565b6040516100be919061071e565b60405180910390f35b6100e160048036038101906100dc91906106e2565b6102f0565b6040516100f2959493929190610813565b60405180910390f35b610115600480360381019061011091906106e2565b610456565b6040516101229190610874565b60405180910390f35b610145600480360381019061014091906108c2565b6104f6565b604051610152919061090a565b60405180910390f35b61017560048036038101906101709190610a5a565b610516565b005b610191600480360381019061018c91906106e2565b610530565b60405161019e9190610aa3565b60405180910390f35b6101af610563565b6040516101bc9190610874565b60405180910390f35b600160003373ffffffffffffffffffffffffffffffffffffffff1673ffffffffffffffffffffffffffffffffffffffff16815260200190815260200160002060009054906101000a900460ff161561021c57600080fd5b60008111801561022e57506003548111155b61023757600080fd5b60018060003373ffffffffffffffffffffffffffffffffffffffff1673ffffffffffffffffffffffffffffffffffffffff16815260200190815260200160002060006101000a81548160ff0219169083151502179055506002600082815260200190815260200160002060020160008154809291906102b590610aed565b9190505550807ffff3c900d938d21d0990d786e819f29b8d05c1ef587b462b939609625b684b1660405160405180910390a250565b60035481565b600260205280600052604060002060009150905080600001549080600101805461031990610b65565b80601f016020809104026020016040519081016040528092919081815260200182805461034590610b65565b80156103925780601f1061036757610100808354040283529160200191610392565b820191906000526020600020905b81548152906001019060200180831161037557829003601f168201915b5050505050908060020154908060030160009054906101000a900473ffffffffffffffffffffffffffffffffffffffff16908060040180546103d390610b65565b80601f01602080910402602001604051908101604052809291908181526020018280546103ff90610b65565b801561044c5780601f106104215761010080835404028352916020019161044c565b820191906000526020600020905b81548152906001019060200180831161042f57829003601f168201915b5050505050905085565b6005602052806000526040600020600091509050805461047590610b65565b80601f01602080910402602001604051908101604052809291908181526020018280546104a190610b65565b80156104ee5780601f106104c3576101008083540402835291602001916104ee565b820191906000526020600020905b8154815290600101906020018083116104d157829003601f168201915b505050505081565b60016020528060005260406000206000915054906101000a900460ff1681565b806000908051906020019061052c9291906105f5565b5050565b60046020528060005260406000206000915054906101000a900473ffffffffffffffffffffffffffffffffffffffff1681565b60606000805461057290610b65565b80601f016020809104026020016040519081016040528092919081815260200182805461059e90610b65565b80156105eb5780601f106105c0576101008083540402835291602001916105eb565b820191906000526020600020905b8154815290600101906020018083116105ce57829003601f168201915b5050505050905090565b82805461060190610b65565b90600052602060002090601f016020900481019282610623576000855561066a565b82601f1061063c57805160ff191683800117855561066a565b8280016001018555821561066a579182015b8281111561066957825182559160200191906001019061064e565b5b509050610677919061067b565b5090565b5b8082111561069457600081600090555060010161067c565b5090565b6000604051905090565b600080fd5b600080fd5b6000819050919050565b6106bf816106ac565b81146106ca57600080fd5b50565b6000813590506106dc816106b6565b92915050565b6000602082840312156106f8576106f76106a2565b5b6000610706848285016106cd565b91505092915050565b610718816106ac565b82525050565b6000602082019050610733600083018461070f565b92915050565b600081519050919050565b600082825260208201905092915050565b60005b83811015610773578082015181840152602081019050610758565b83811115610782576000848401525b50505050565b6000601f19601f8301169050919050565b60006107a482610739565b6107ae8185610744565b93506107be818560208601610755565b6107c781610788565b840191505092915050565b600073ffffffffffffffffffffffffffffffffffffffff82169050919050565b60006107fd826107d2565b9050919050565b61080d816107f2565b82525050565b600060a082019050610828600083018861070f565b818103602083015261083a8187610799565b9050610849604083018661070f565b6108566060830185610804565b81810360808301526108688184610799565b90509695505050505050565b6000602082019050818103600083015261088e8184610799565b905092915050565b61089f816107f2565b81146108aa57600080fd5b50565b6000813590506108bc81610896565b92915050565b6000602082840312156108d8576108d76106a2565b5b60006108e6848285016108ad565b91505092915050565b60008115159050919050565b610904816108ef565b82525050565b600060208201905061091f60008301846108fb565b92915050565b600080fd5b600080fd5b7f4e487b7100000000000000000000000000000000000000000000000000000000600052604160045260246000fd5b61096782610788565b810181811067ffffffffffffffff821117156109865761098561092f565b5b80604052505050565b6000610999610698565b90506109a5828261095e565b919050565b600067ffffffffffffffff8211156109c5576109c461092f565b5b6109ce82610788565b9050602081019050919050565b82818337600083830152505050565b60006109fd6109f8846109aa565b61098f565b905082815260208101848484011115610a1957610a1861092a565b5b610a248482856109db565b509392505050565b600082601f830112610a4157610a40610925565b5b8135610a518482602086016109ea565b91505092915050565b600060208284031215610a7057610a6f6106a2565b5b600082013567ffffffffffffffff811115610a8e57610a8d6106a7565b5b610a9a84828501610a2c565b91505092915050565b6000602082019050610ab86000830184610804565b92915050565b7f4e487b7100000000000000000000000000000000000000000000000000000000600052601160045260246000fd5b6000610af8826106ac565b91507fffffffffffffffffffffffffffffffffffffffffffffffffffffffffffffffff821415610b2b57610b2a610abe565b5b600182019050919050565b7f4e487b7100000000000000000000000000000000000000000000000000000000600052602260045260246000fd5b60006002820490506001821680610b7d57607f821691505b60208210811415610b9157610b90610b36565b5b5091905056fea2646970667358221220746b3521d89a59e04005c64c50eff06d05386fc98b9ad120eddf2a9262bba0b364736f6c634300080a0033",
  "immutableReferences": {},
  "source": "pragma solidity ^0.8.0;\r\n// SPDX-License-Identifier: UNLICENSED\r\n\r\ncontract Election {\r\n    // Model a Candidate\r\n    struct Candidate {\r\n        uint id;\r\n        string name;\r\n        uint voteCount;\r\n        address creator;\r\n        string summary;\r\n    }\r\n\r\n    string greeting = \"Hello World\";\r\n\r\n    function setGreeting(string memory s) public {\r\n        greeting = s;\r\n    }\r\n\r\n    function getGreeting() public view returns(string memory) {\r\n        return greeting;\r\n    }\r\n\r\n\r\n    constructor() {\r\n        address currentState = msg.sender;\r\n        addCandidate(\"Click Based Games\",currentState, \"Clicking\");\r\n        addCandidate(\"Keyboard Based Games\",currentState, \"Keyboard\");\r\n    }\r\n\r\n\r\n    // Store accounts that have voted\r\n    mapping(address => bool) public voters;\r\n    // Read/write candidates\r\n    mapping(uint => Candidate) public candidates;\r\n    // Store Candidates Count\r\n    uint public candidatesCount;\r\n    //Store Creators\r\n    mapping(uint => address) public creators;\r\n    //Store summary\r\n    mapping(uint => string) public summary;\r\n\r\n    event votedEvent (\r\n        uint indexed _candidateId\r\n    );\r\n\r\n    \r\n\r\n    function addCandidate (string memory _name, address _creator, string memory _summary) private {\r\n        candidatesCount ++;\r\n        candidates[candidatesCount] = Candidate(candidatesCount, _name, 0, _creator, _summary);\r\n    }\r\n\r\n    function vote (uint _candidateId) public {\r\n        // require that they haven't voted before\r\n        require(!voters[msg.sender]);\r\n\r\n        // require a valid candidate\r\n        require(_candidateId > 0 && _candidateId <= candidatesCount);\r\n\r\n        // record that voter has voted\r\n        voters[msg.sender] = true;\r\n\r\n        // update candidate vote Count\r\n        candidates[_candidateId].voteCount ++;\r\n        // trigger voted event\r\n        emit votedEvent(_candidateId);\r\n    }\r\n}",
  "sourcePath": "C:\\Users\\nolan\\345pi\\contracts\\election.sol",
  "compiler": {
    "name": "solc",
    "version": "0.8.10+commit.fc410830.Emscripten.clang"
  },
  "schemaVersion": "3.4.3",
  "updatedAt": "2021-11-22T06:09:39.998Z",
  "devdoc": {
    "kind": "dev",
    "methods": {},
    "version": 1
  },
  "userdoc": {
    "kind": "user",
    "methods": {},
    "version": 1
  }
}