{
  "contractName": "Governance",
  "abi": [
    {
      "inputs": [],
      "stateMutability": "nonpayable",
      "type": "constructor"
    },
    {
      "anonymous": false,
      "inputs": [
        {
          "indexed": true,
          "internalType": "uint256",
          "name": "_candidateId",
          "type": "uint256"
        }
      ],
      "name": "votedEvent",
      "type": "event"
    },
    {
      "inputs": [
        {
          "internalType": "uint256",
          "name": "",
          "type": "uint256"
        }
      ],
      "name": "candidates",
      "outputs": [
        {
          "internalType": "uint256",
          "name": "id",
          "type": "uint256"
        },
        {
          "internalType": "string",
          "name": "name",
          "type": "string"
        },
        {
          "internalType": "uint256",
          "name": "voteCount",
          "type": "uint256"
        },
        {
          "internalType": "address",
          "name": "creator",
          "type": "address"
        },
        {
          "internalType": "string",
          "name": "summary",
          "type": "string"
        }
      ],
      "stateMutability": "view",
      "type": "function",
      "constant": true
    },
    {
      "inputs": [],
      "name": "candidatesCount",
      "outputs": [
        {
          "internalType": "uint256",
          "name": "",
          "type": "uint256"
        }
      ],
      "stateMutability": "view",
      "type": "function",
      "constant": true
    },
    {
      "inputs": [
        {
          "internalType": "uint256",
          "name": "",
          "type": "uint256"
        }
      ],
      "name": "creators",
      "outputs": [
        {
          "internalType": "address",
          "name": "",
          "type": "address"
        }
      ],
      "stateMutability": "view",
      "type": "function",
      "constant": true
    },
    {
      "inputs": [
        {
          "internalType": "uint256",
          "name": "",
          "type": "uint256"
        }
      ],
      "name": "summary",
      "outputs": [
        {
          "internalType": "string",
          "name": "",
          "type": "string"
        }
      ],
      "stateMutability": "view",
      "type": "function",
      "constant": true
    },
    {
      "inputs": [
        {
          "internalType": "address",
          "name": "",
          "type": "address"
        }
      ],
      "name": "voters",
      "outputs": [
        {
          "internalType": "bool",
          "name": "",
          "type": "bool"
        }
      ],
      "stateMutability": "view",
      "type": "function",
      "constant": true
    },
    {
      "inputs": [
        {
          "internalType": "string",
          "name": "s",
          "type": "string"
        }
      ],
      "name": "setGreeting",
      "outputs": [],
      "stateMutability": "nonpayable",
      "type": "function"
    },
    {
      "inputs": [],
      "name": "getGreeting",
      "outputs": [
        {
          "internalType": "string",
          "name": "",
          "type": "string"
        }
      ],
      "stateMutability": "view",
      "type": "function",
      "constant": true
    },
    {
      "inputs": [
        {
          "internalType": "uint256",
          "name": "_candidateId",
          "type": "uint256"
        }
      ],
      "name": "vote",
      "outputs": [],
      "stateMutability": "nonpayable",
      "type": "function"
    }
  ],
  "bytecode": "0x60806040526040518060400160405280600b81526020017f48656c6c6f20576f726c64000000000000000000000000000000000000000000815250600090805190602001906200005192919062000276565b503480156200005f57600080fd5b506000339050620000e26040518060400160405280601181526020017f436c69636b2042617365642047616d6573000000000000000000000000000000815250826040518060400160405280600881526020017f436c69636b696e670000000000000000000000000000000000000000000000008152506200016660201b60201c565b6200015f6040518060400160405280601481526020017f4b6579626f6172642042617365642047616d6573000000000000000000000000815250826040518060400160405280600881526020017f4b6579626f6172640000000000000000000000000000000000000000000000008152506200016660201b60201c565b5062000412565b600360008154809291906200017b906200035f565b91905055506040518060a001604052806003548152602001848152602001600081526020018373ffffffffffffffffffffffffffffffffffffffff16815260200182815250600260006003548152602001908152602001600020600082015181600001556020820151816001019080519060200190620001fd92919062000276565b506040820151816002015560608201518160030160006101000a81548173ffffffffffffffffffffffffffffffffffffffff021916908373ffffffffffffffffffffffffffffffffffffffff16021790555060808201518160040190805190602001906200026d92919062000276565b50905050505050565b8280546200028490620003dc565b90600052602060002090601f016020900481019282620002a85760008555620002f4565b82601f10620002c357805160ff1916838001178555620002f4565b82800160010185558215620002f4579182015b82811115620002f3578251825591602001919060010190620002d6565b5b50905062000303919062000307565b5090565b5b808211156200032257600081600090555060010162000308565b5090565b7f4e487b7100000000000000000000000000000000000000000000000000000000600052601160045260246000fd5b6000819050919050565b60006200036c8262000355565b91507fffffffffffffffffffffffffffffffffffffffffffffffffffffffffffffffff821415620003a257620003a162000326565b5b600182019050919050565b7f4e487b7100000000000000000000000000000000000000000000000000000000600052602260045260246000fd5b60006002820490506001821680620003f557607f821691505b602082108114156200040c576200040b620003ad565b5b50919050565b610d1180620004226000396000f3fe608060405234801561001057600080fd5b50600436106100885760003560e01c8063a3ec138d1161005b578063a3ec138d1461012b578063a41368621461015b578063cd53d08e14610177578063fe50cc72146101a757610088565b80630121b93f1461008d5780632d35a8a2146100a95780633477ee2e146100c75780636152e655146100fb575b600080fd5b6100a760048036038101906100a2919061074e565b6101c5565b005b6100b1610356565b6040516100be919061078a565b60405180910390f35b6100e160048036038101906100dc919061074e565b61035c565b6040516100f295949392919061087f565b60405180910390f35b6101156004803603810190610110919061074e565b6104c2565b60405161012291906108e0565b60405180910390f35b6101456004803603810190610140919061092e565b610562565b6040516101529190610976565b60405180910390f35b61017560048036038101906101709190610ac6565b610582565b005b610191600480360381019061018c919061074e565b61059c565b60405161019e9190610b0f565b60405180910390f35b6101af6105cf565b6040516101bc91906108e0565b60405180910390f35b600160003373ffffffffffffffffffffffffffffffffffffffff1673ffffffffffffffffffffffffffffffffffffffff16815260200190815260200160002060009054906101000a900460ff1615610252576040517f08c379a000000000000000000000000000000000000000000000000000000000815260040161024990610b76565b60405180910390fd5b60008111801561026457506003548111155b6102a3576040517f08c379a000000000000000000000000000000000000000000000000000000000815260040161029a90610be2565b60405180910390fd5b60018060003373ffffffffffffffffffffffffffffffffffffffff1673ffffffffffffffffffffffffffffffffffffffff16815260200190815260200160002060006101000a81548160ff02191690831515021790555060026000828152602001908152602001600020600201600081548092919061032190610c31565b9190505550807ffff3c900d938d21d0990d786e819f29b8d05c1ef587b462b939609625b684b1660405160405180910390a250565b60035481565b600260205280600052604060002060009150905080600001549080600101805461038590610ca9565b80601f01602080910402602001604051908101604052809291908181526020018280546103b190610ca9565b80156103fe5780601f106103d3576101008083540402835291602001916103fe565b820191906000526020600020905b8154815290600101906020018083116103e157829003601f168201915b5050505050908060020154908060030160009054906101000a900473ffffffffffffffffffffffffffffffffffffffff169080600401805461043f90610ca9565b80601f016020809104026020016040519081016040528092919081815260200182805461046b90610ca9565b80156104b85780601f1061048d576101008083540402835291602001916104b8565b820191906000526020600020905b81548152906001019060200180831161049b57829003601f168201915b5050505050905085565b600560205280600052604060002060009150905080546104e190610ca9565b80601f016020809104026020016040519081016040528092919081815260200182805461050d90610ca9565b801561055a5780601f1061052f5761010080835404028352916020019161055a565b820191906000526020600020905b81548152906001019060200180831161053d57829003601f168201915b505050505081565b60016020528060005260406000206000915054906101000a900460ff1681565b8060009080519060200190610598929190610661565b5050565b60046020528060005260406000206000915054906101000a900473ffffffffffffffffffffffffffffffffffffffff1681565b6060600080546105de90610ca9565b80601f016020809104026020016040519081016040528092919081815260200182805461060a90610ca9565b80156106575780601f1061062c57610100808354040283529160200191610657565b820191906000526020600020905b81548152906001019060200180831161063a57829003601f168201915b5050505050905090565b82805461066d90610ca9565b90600052602060002090601f01602090048101928261068f57600085556106d6565b82601f106106a857805160ff19168380011785556106d6565b828001600101855582156106d6579182015b828111156106d55782518255916020019190600101906106ba565b5b5090506106e391906106e7565b5090565b5b808211156107005760008160009055506001016106e8565b5090565b6000604051905090565b600080fd5b600080fd5b6000819050919050565b61072b81610718565b811461073657600080fd5b50565b60008135905061074881610722565b92915050565b6000602082840312156107645761076361070e565b5b600061077284828501610739565b91505092915050565b61078481610718565b82525050565b600060208201905061079f600083018461077b565b92915050565b600081519050919050565b600082825260208201905092915050565b60005b838110156107df5780820151818401526020810190506107c4565b838111156107ee576000848401525b50505050565b6000601f19601f8301169050919050565b6000610810826107a5565b61081a81856107b0565b935061082a8185602086016107c1565b610833816107f4565b840191505092915050565b600073ffffffffffffffffffffffffffffffffffffffff82169050919050565b60006108698261083e565b9050919050565b6108798161085e565b82525050565b600060a082019050610894600083018861077b565b81810360208301526108a68187610805565b90506108b5604083018661077b565b6108c26060830185610870565b81810360808301526108d48184610805565b90509695505050505050565b600060208201905081810360008301526108fa8184610805565b905092915050565b61090b8161085e565b811461091657600080fd5b50565b60008135905061092881610902565b92915050565b6000602082840312156109445761094361070e565b5b600061095284828501610919565b91505092915050565b60008115159050919050565b6109708161095b565b82525050565b600060208201905061098b6000830184610967565b92915050565b600080fd5b600080fd5b7f4e487b7100000000000000000000000000000000000000000000000000000000600052604160045260246000fd5b6109d3826107f4565b810181811067ffffffffffffffff821117156109f2576109f161099b565b5b80604052505050565b6000610a05610704565b9050610a1182826109ca565b919050565b600067ffffffffffffffff821115610a3157610a3061099b565b5b610a3a826107f4565b9050602081019050919050565b82818337600083830152505050565b6000610a69610a6484610a16565b6109fb565b905082815260208101848484011115610a8557610a84610996565b5b610a90848285610a47565b509392505050565b600082601f830112610aad57610aac610991565b5b8135610abd848260208601610a56565b91505092915050565b600060208284031215610adc57610adb61070e565b5b600082013567ffffffffffffffff811115610afa57610af9610713565b5b610b0684828501610a98565b91505092915050565b6000602082019050610b246000830184610870565b92915050565b7f556e61626c6520746f20766f7465207477696365000000000000000000000000600082015250565b6000610b606014836107b0565b9150610b6b82610b2a565b602082019050919050565b60006020820190508181036000830152610b8f81610b53565b9050919050565b7f43616e64696461746520494e56414c4944000000000000000000000000000000600082015250565b6000610bcc6011836107b0565b9150610bd782610b96565b602082019050919050565b60006020820190508181036000830152610bfb81610bbf565b9050919050565b7f4e487b7100000000000000000000000000000000000000000000000000000000600052601160045260246000fd5b6000610c3c82610718565b91507fffffffffffffffffffffffffffffffffffffffffffffffffffffffffffffffff821415610c6f57610c6e610c02565b5b600182019050919050565b7f4e487b7100000000000000000000000000000000000000000000000000000000600052602260045260246000fd5b60006002820490506001821680610cc157607f821691505b60208210811415610cd557610cd4610c7a565b5b5091905056fea26469706673582212201c74ff7926a0cc2f3dd1102b7287bb4c76786e6ab0b2285ccc9142e77205cf0564736f6c634300080a0033",
  "immutableReferences": {},
  "source": "pragma solidity ^0.8.0;\r\n// SPDX-License-Identifier: UNLICENSED\r\n\r\ncontract Governance {\r\n    // Model a Candidate\r\n    struct Candidate {\r\n        uint id;\r\n        string name;\r\n        uint voteCount;\r\n        address creator;\r\n        string summary;\r\n    }\r\n\r\n    string greeting = \"Hello World\";\r\n\r\n    function setGreeting(string memory s) public {\r\n        greeting = s;\r\n    }\r\n\r\n    function getGreeting() public view returns(string memory) {\r\n        return greeting;\r\n    }\r\n\r\n\r\n    constructor() {\r\n        address currentState = msg.sender;\r\n        addCandidate(\"Click Based Games\",currentState, \"Clicking\");\r\n        addCandidate(\"Keyboard Based Games\",currentState, \"Keyboard\");\r\n    }\r\n\r\n    // Store accounts that have voted\r\n    mapping(address => bool) public voters;\r\n    // Read/write candidates\r\n    mapping(uint => Candidate) public candidates;\r\n    // Store Candidates Count\r\n    uint public candidatesCount;\r\n    //Store Creators\r\n    mapping(uint => address) public creators;\r\n    //Store summary\r\n    mapping(uint => string) public summary;\r\n\r\n    event votedEvent (\r\n        uint indexed _candidateId\r\n    );\r\n\r\n    function addCandidate (string memory _name, address _creator, string memory _summary) private {\r\n        candidatesCount ++;\r\n        candidates[candidatesCount] = Candidate(candidatesCount, _name, 0, _creator, _summary);\r\n    }\r\n\r\n    function vote (uint _candidateId) public {\r\n        // require that they haven't voted before\r\n        require(!voters[msg.sender], \"Unable to vote twice\");\r\n\r\n        // require a valid candidate\r\n        require(_candidateId > 0 && _candidateId <= candidatesCount, \"Candidate INVALID\");\r\n\r\n        // record that voter has voted\r\n        voters[msg.sender] = true;\r\n\r\n        // update candidate vote Count\r\n        candidates[_candidateId].voteCount ++;\r\n        // trigger voted event\r\n        emit votedEvent(_candidateId);\r\n    }\r\n}",
  "sourcePath": "C:\\Users\\nolan\\345pi\\contracts\\Governance.sol",
  "compiler": {
    "name": "solc",
    "version": "0.8.10+commit.fc410830.Emscripten.clang"
  },
  "schemaVersion": "3.4.3",
  "updatedAt": "2021-11-22T06:40:24.745Z",
  "networkType": "ethereum",
  "devdoc": {
    "kind": "dev",
    "methods": {},
    "version": 1
  },
  "userdoc": {
    "kind": "user",
    "methods": {},
    "version": 1
  }
}