{
  "contractName": "Option",
  "abi": [
    {
      "inputs": [
        {
          "internalType": "uint256",
          "name": "_id",
          "type": "uint256"
        },
        {
          "internalType": "string",
          "name": "_name",
          "type": "string"
        },
        {
          "internalType": "string",
          "name": "_summary",
          "type": "string"
        }
      ],
      "payable": false,
      "stateMutability": "nonpayable",
      "type": "constructor"
    },
    {
      "constant": true,
      "inputs": [
        {
          "internalType": "uint256",
          "name": "",
          "type": "uint256"
        }
      ],
      "name": "optionDataArray",
      "outputs": [
        {
          "internalType": "contract Option",
          "name": "",
          "type": "address"
        }
      ],
      "payable": false,
      "stateMutability": "view",
      "type": "function"
    },
    {
      "constant": true,
      "inputs": [],
      "name": "getName",
      "outputs": [
        {
          "internalType": "string",
          "name": "",
          "type": "string"
        }
      ],
      "payable": false,
      "stateMutability": "view",
      "type": "function"
    },
    {
      "constant": true,
      "inputs": [],
      "name": "getVoteCount",
      "outputs": [
        {
          "internalType": "uint256",
          "name": "",
          "type": "uint256"
        }
      ],
      "payable": false,
      "stateMutability": "view",
      "type": "function"
    },
    {
      "constant": true,
      "inputs": [],
      "name": "getCreator",
      "outputs": [
        {
          "internalType": "address",
          "name": "",
          "type": "address"
        }
      ],
      "payable": false,
      "stateMutability": "view",
      "type": "function"
    },
    {
      "constant": true,
      "inputs": [],
      "name": "getSummary",
      "outputs": [
        {
          "internalType": "string",
          "name": "",
          "type": "string"
        }
      ],
      "payable": false,
      "stateMutability": "view",
      "type": "function"
    }
  ],
  "bytecode": "0x608060405234801561001057600080fd5b5060405161070a38038061070a8339818101604052606081101561003357600080fd5b81019080805190602001909291908051604051939291908464010000000082111561005d57600080fd5b8382019150602082018581111561007357600080fd5b825186600182028301116401000000008211171561009057600080fd5b8083526020830192505050908051906020019080838360005b838110156100c45780820151818401526020810190506100a9565b50505050905090810190601f1680156100f15780820380516001836020036101000a031916815260200191505b506040526020018051604051939291908464010000000082111561011457600080fd5b8382019150602082018581111561012a57600080fd5b825186600182028301116401000000008211171561014757600080fd5b8083526020830192505050908051906020019080838360005b8381101561017b578082015181840152602081019050610160565b50505050905090810190601f1680156101a85780820380516001836020036101000a031916815260200191505b506040525050508260008190555081600190805190602001906101cc929190610235565b50600060028190555033600360006101000a81548173ffffffffffffffffffffffffffffffffffffffff021916908373ffffffffffffffffffffffffffffffffffffffff160217905550806004908051906020019061022c929190610235565b505050506102da565b828054600181600116156101000203166002900490600052602060002090601f016020900481019282601f1061027657805160ff19168380011785556102a4565b828001600101855582156102a4579182015b828111156102a3578251825591602001919060010190610288565b5b5090506102b191906102b5565b5090565b6102d791905b808211156102d35760008160009055506001016102bb565b5090565b90565b610421806102e96000396000f3fe608060405234801561001057600080fd5b50600436106100575760003560e01c806305a77cfe1461005c5780630ee2cb10146100ca57806317d7de7c146101145780634051ddac14610197578063e7b3387c1461021a575b600080fd5b6100886004803603602081101561007257600080fd5b8101908080359060200190929190505050610238565b604051808273ffffffffffffffffffffffffffffffffffffffff1673ffffffffffffffffffffffffffffffffffffffff16815260200191505060405180910390f35b6100d2610274565b604051808273ffffffffffffffffffffffffffffffffffffffff1673ffffffffffffffffffffffffffffffffffffffff16815260200191505060405180910390f35b61011c61029e565b6040518080602001828103825283818151815260200191508051906020019080838360005b8381101561015c578082015181840152602081019050610141565b50505050905090810190601f1680156101895780820380516001836020036101000a031916815260200191505b509250505060405180910390f35b61019f610340565b6040518080602001828103825283818151815260200191508051906020019080838360005b838110156101df5780820151818401526020810190506101c4565b50505050905090810190601f16801561020c5780820380516001836020036101000a031916815260200191505b509250505060405180910390f35b6102226103e2565b6040518082815260200191505060405180910390f35b6006818154811061024557fe5b906000526020600020016000915054906101000a900473ffffffffffffffffffffffffffffffffffffffff1681565b6000600360009054906101000a900473ffffffffffffffffffffffffffffffffffffffff16905090565b606060018054600181600116156101000203166002900480601f0160208091040260200160405190810160405280929190818152602001828054600181600116156101000203166002900480156103365780601f1061030b57610100808354040283529160200191610336565b820191906000526020600020905b81548152906001019060200180831161031957829003601f168201915b5050505050905090565b606060048054600181600116156101000203166002900480601f0160208091040260200160405190810160405280929190818152602001828054600181600116156101000203166002900480156103d85780601f106103ad576101008083540402835291602001916103d8565b820191906000526020600020905b8154815290600101906020018083116103bb57829003601f168201915b5050505050905090565b600060025490509056fea265627a7a72315820dd11d98fc33645ae897cef36552aa0f5639c63512a28536f21741ce31651e17764736f6c63430005100032",
  "source": "pragma solidity >=0.5.11 <0.9.0;\r\n\r\ncontract ProposalList {\r\n    // ProposalList global data\r\n    uint public propCount;\r\n    mapping (uint => Proposal) proposals;\r\n    Proposal[] public propList;\r\n    mapping (uint => address) proposalCreators; // What is the point of this mapping?\r\n\r\n    struct Proposal{\r\n        uint id;\r\n        string name;\r\n        address creator;\r\n        string summary;\r\n        Option[] optionList;\r\n    }\r\n\r\n    constructor() public{\r\n        propCount = 0;\r\n        addProposal(0, \"Game Types\", msg.sender, \"What type of game\");\r\n        addProposal(1, \"Other Proposal\", msg.sender, \"What kind of game do you prefer\");\r\n        addOption(0,0, \"Click-Based\", \"Do you like click games?\");\r\n    }\r\n\r\n    function addProposal (uint _id, string memory _name, address _creator, string memory _summary) public {\r\n        Option[] memory temp;\r\n        propList.push(Proposal(_id, _name, _creator, _summary, temp));\r\n        propCount ++;\r\n    }\r\n\r\n    // Proposal getters\r\n    function getName(uint propIndex) public view returns(string memory) {\r\n        return propList[propIndex].name;\r\n    }\r\n\r\n    function getCreator(uint propIndex) public view returns(address) {\r\n        return propList[propIndex].creator;\r\n    }\r\n\r\n    function getSummary(uint propIndex) public view returns(string memory) {\r\n        return propList[propIndex].summary;\r\n    }\r\n\r\n    // Option getters\r\n    function getOptionName(uint propIndex, uint index) public view returns(string memory){\r\n        return propList[propIndex].optionList[index].getName();\r\n    }\r\n\r\n    function getOptionVoteCount(uint propIndex, uint index) public view returns(uint) {\r\n        return propList[propIndex].optionList[index].getVoteCount();\r\n    }\r\n\r\n    function getOptionCreator(uint propIndex, uint index) public view returns(address) {\r\n        return propList[propIndex].optionList[index].getCreator();\r\n    }\r\n\r\n    function getOptionSummary(uint propIndex, uint index) public view returns(string memory) {\r\n        return propList[propIndex].optionList[index].getSummary();\r\n    }\r\n    function addOption(uint propIndex, uint _id, string memory _name, string memory _summary)  public{\r\n        Option temp = new Option(_id, _name,_summary);\r\n        propList[propIndex].optionList.push(temp);\r\n    }\r\n}\r\n\r\ncontract Option {\r\n    uint id;\r\n    string name;\r\n    uint voteCount;\r\n    address creator;\r\n    string summary;\r\n\r\n    mapping (uint => Option) options;\r\n    Option[] public optionDataArray;\r\n\r\n    constructor(uint _id, string memory _name, string memory _summary) public {\r\n        id = _id;\r\n        name = _name;\r\n        voteCount = 0;\r\n        creator = msg.sender;\r\n        summary = _summary;\r\n    }\r\n\r\n    function getName() public view returns(string memory) {\r\n        return name;\r\n    }\r\n\r\n    function getVoteCount() public view returns(uint) {\r\n        return voteCount;\r\n    }\r\n\r\n    function getCreator() public view returns(address) {\r\n        return creator;\r\n    }\r\n\r\n    function getSummary() public view returns(string memory) {\r\n        return summary;\r\n    }\r\n}",
  "sourcePath": "C:\\Users\\nolan\\345pi.eth\\contracts\\ProposalList.sol",
  "compiler": {
    "name": "solc",
    "version": "0.5.16+commit.9c3226ce.Emscripten.clang"
  },
  "schemaVersion": "3.4.4",
  "updatedAt": "2022-01-02T21:07:12.848Z",
  "networkType": "ethereum",
  "devdoc": {
    "methods": {}
  },
  "userdoc": {
    "methods": {}
  }
}