{
  "contractName": "Option",
  "abi": [
    {
      "inputs": [
        {
          "internalType": "uint256",
          "name": "_id",
          "type": "uint256"
        },
        {
          "internalType": "string",
          "name": "_name",
          "type": "string"
        },
        {
          "internalType": "string",
          "name": "_summary",
          "type": "string"
        }
      ],
      "payable": false,
      "stateMutability": "nonpayable",
      "type": "constructor"
    },
    {
      "constant": true,
      "inputs": [
        {
          "internalType": "uint256",
          "name": "",
          "type": "uint256"
        }
      ],
      "name": "optionDataArray",
      "outputs": [
        {
          "internalType": "contract Option",
          "name": "",
          "type": "address"
        }
      ],
      "payable": false,
      "stateMutability": "view",
      "type": "function"
    },
    {
      "constant": true,
      "inputs": [],
      "name": "getName",
      "outputs": [
        {
          "internalType": "string",
          "name": "",
          "type": "string"
        }
      ],
      "payable": false,
      "stateMutability": "view",
      "type": "function"
    },
    {
      "constant": true,
      "inputs": [],
      "name": "getVoteCount",
      "outputs": [
        {
          "internalType": "uint256",
          "name": "",
          "type": "uint256"
        }
      ],
      "payable": false,
      "stateMutability": "view",
      "type": "function"
    },
    {
      "constant": true,
      "inputs": [],
      "name": "getCreator",
      "outputs": [
        {
          "internalType": "address",
          "name": "",
          "type": "address"
        }
      ],
      "payable": false,
      "stateMutability": "view",
      "type": "function"
    },
    {
      "constant": true,
      "inputs": [],
      "name": "getSummary",
      "outputs": [
        {
          "internalType": "string",
          "name": "",
          "type": "string"
        }
      ],
      "payable": false,
      "stateMutability": "view",
      "type": "function"
    }
  ],
  "bytecode": "0x608060405234801561001057600080fd5b5060405161070a38038061070a8339818101604052606081101561003357600080fd5b81019080805190602001909291908051604051939291908464010000000082111561005d57600080fd5b8382019150602082018581111561007357600080fd5b825186600182028301116401000000008211171561009057600080fd5b8083526020830192505050908051906020019080838360005b838110156100c45780820151818401526020810190506100a9565b50505050905090810190601f1680156100f15780820380516001836020036101000a031916815260200191505b506040526020018051604051939291908464010000000082111561011457600080fd5b8382019150602082018581111561012a57600080fd5b825186600182028301116401000000008211171561014757600080fd5b8083526020830192505050908051906020019080838360005b8381101561017b578082015181840152602081019050610160565b50505050905090810190601f1680156101a85780820380516001836020036101000a031916815260200191505b506040525050508260008190555081600190805190602001906101cc929190610235565b50600060028190555033600360006101000a81548173ffffffffffffffffffffffffffffffffffffffff021916908373ffffffffffffffffffffffffffffffffffffffff160217905550806004908051906020019061022c929190610235565b505050506102da565b828054600181600116156101000203166002900490600052602060002090601f016020900481019282601f1061027657805160ff19168380011785556102a4565b828001600101855582156102a4579182015b828111156102a3578251825591602001919060010190610288565b5b5090506102b191906102b5565b5090565b6102d791905b808211156102d35760008160009055506001016102bb565b5090565b90565b610421806102e96000396000f3fe608060405234801561001057600080fd5b50600436106100575760003560e01c806305a77cfe1461005c5780630ee2cb10146100ca57806317d7de7c146101145780634051ddac14610197578063e7b3387c1461021a575b600080fd5b6100886004803603602081101561007257600080fd5b8101908080359060200190929190505050610238565b604051808273ffffffffffffffffffffffffffffffffffffffff1673ffffffffffffffffffffffffffffffffffffffff16815260200191505060405180910390f35b6100d2610274565b604051808273ffffffffffffffffffffffffffffffffffffffff1673ffffffffffffffffffffffffffffffffffffffff16815260200191505060405180910390f35b61011c61029e565b6040518080602001828103825283818151815260200191508051906020019080838360005b8381101561015c578082015181840152602081019050610141565b50505050905090810190601f1680156101895780820380516001836020036101000a031916815260200191505b509250505060405180910390f35b61019f610340565b6040518080602001828103825283818151815260200191508051906020019080838360005b838110156101df5780820151818401526020810190506101c4565b50505050905090810190601f16801561020c5780820380516001836020036101000a031916815260200191505b509250505060405180910390f35b6102226103e2565b6040518082815260200191505060405180910390f35b6006818154811061024557fe5b906000526020600020016000915054906101000a900473ffffffffffffffffffffffffffffffffffffffff1681565b6000600360009054906101000a900473ffffffffffffffffffffffffffffffffffffffff16905090565b606060018054600181600116156101000203166002900480601f0160208091040260200160405190810160405280929190818152602001828054600181600116156101000203166002900480156103365780601f1061030b57610100808354040283529160200191610336565b820191906000526020600020905b81548152906001019060200180831161031957829003601f168201915b5050505050905090565b606060048054600181600116156101000203166002900480601f0160208091040260200160405190810160405280929190818152602001828054600181600116156101000203166002900480156103d85780601f106103ad576101008083540402835291602001916103d8565b820191906000526020600020905b8154815290600101906020018083116103bb57829003601f168201915b5050505050905090565b600060025490509056fea265627a7a72315820aefd7c5dcc1fa480bf8b463ad087d7b2d1f8b2ba675d025df3e14ff24f4d09d964736f6c63430005100032",
  "source": "pragma solidity >=0.5.11 <0.9.0;\n\ncontract ProposalList {\n    // ProposalList global data\n    uint public propCount;\n    mapping (uint => Proposal) proposals;\n    Proposal[] public propList;\n    mapping (uint => address) proposalCreators; // What is the point of this mapping?\n\n    struct Proposal{\n        uint id;\n        string name;\n        address creator;\n        string summary;\n        Option[] optionList;\n    }\n\n    constructor() public{\n        propCount = 0;\n        addProposal(0, \"Game Types\", msg.sender, \"What type of game\");\n        addProposal(1, \"Other Proposal\", msg.sender, \"What kind of game do you prefer\");\n        addOption(0,0, \"Click-Based\", \"Do you like click games?\");\n    }\n\n    function addProposal (uint _id, string memory _name, address _creator, string memory _summary) public {\n        Option[] memory temp;\n        propList.push(Proposal(_id, _name, _creator, _summary, temp));\n        propCount ++;\n    }\n\n    // Proposal getters\n    function getName(uint propIndex) public view returns(string memory) {\n        return propList[propIndex].name;\n    }\n\n    function getCreator(uint propIndex) public view returns(address) {\n        return propList[propIndex].creator;\n    }\n\n    function getSummary(uint propIndex) public view returns(string memory) {\n        return propList[propIndex].summary;\n    }\n\n    // Option getters\n    function getOptionName(uint propIndex, uint index) public view returns(string memory){\n        return propList[propIndex].optionList[index].getName();\n    }\n\n    function getOptionVoteCount(uint propIndex, uint index) public view returns(uint) {\n        return propList[propIndex].optionList[index].getVoteCount();\n    }\n\n    function getOptionCreator(uint propIndex, uint index) public view returns(address) {\n        return propList[propIndex].optionList[index].getCreator();\n    }\n\n    function getOptionSummary(uint propIndex, uint index) public view returns(string memory) {\n        return propList[propIndex].optionList[index].getSummary();\n    }\n    function addOption(uint propIndex, uint _id, string memory _name, string memory _summary)  public{\n        Option temp = new Option(_id, _name,_summary);\n        propList[propIndex].optionList.push(temp);\n    }\n}\n\ncontract Option {\n    uint id;\n    string name;\n    uint voteCount;\n    address creator;\n    string summary;\n\n    mapping (uint => Option) options;\n    Option[] public optionDataArray;\n\n    constructor(uint _id, string memory _name, string memory _summary) public {\n        id = _id;\n        name = _name;\n        voteCount = 0;\n        creator = msg.sender;\n        summary = _summary;\n    }\n\n    function getName() public view returns(string memory) {\n        return name;\n    }\n\n    function getVoteCount() public view returns(uint) {\n        return voteCount;\n    }\n\n    function getCreator() public view returns(address) {\n        return creator;\n    }\n\n    function getSummary() public view returns(string memory) {\n        return summary;\n    }\n}",
  "sourcePath": "/Users/aryanchaudhary/Desktop/345pi.eth/contracts/ProposalList.sol",
  "compiler": {
    "name": "solc",
    "version": "0.5.16+commit.9c3226ce.Emscripten.clang"
  },
  "schemaVersion": "3.4.3",
  "updatedAt": "2021-12-27T17:24:13.333Z",
  "networkType": "ethereum",
  "devdoc": {
    "methods": {}
  },
  "userdoc": {
    "methods": {}
  }
}