{
  "contractName": "ProposalList",
  "abi": [
    {
      "inputs": [],
      "payable": false,
      "stateMutability": "nonpayable",
      "type": "constructor"
    },
    {
      "constant": true,
      "inputs": [],
      "name": "propCount",
      "outputs": [
        {
          "internalType": "uint256",
          "name": "",
          "type": "uint256"
        }
      ],
      "payable": false,
      "stateMutability": "view",
      "type": "function"
    },
    {
      "constant": true,
      "inputs": [
        {
          "internalType": "uint256",
          "name": "",
          "type": "uint256"
        }
      ],
      "name": "propList",
      "outputs": [
        {
          "internalType": "uint256",
          "name": "id",
          "type": "uint256"
        },
        {
          "internalType": "string",
          "name": "name",
          "type": "string"
        },
        {
          "internalType": "address",
          "name": "creator",
          "type": "address"
        },
        {
          "internalType": "string",
          "name": "summary",
          "type": "string"
        }
      ],
      "payable": false,
      "stateMutability": "view",
      "type": "function"
    },
    {
      "constant": false,
      "inputs": [
        {
          "internalType": "uint256",
          "name": "_id",
          "type": "uint256"
        },
        {
          "internalType": "string",
          "name": "_name",
          "type": "string"
        },
        {
          "internalType": "address",
          "name": "_creator",
          "type": "address"
        },
        {
          "internalType": "string",
          "name": "_summary",
          "type": "string"
        }
      ],
      "name": "addProposal",
      "outputs": [],
      "payable": false,
      "stateMutability": "nonpayable",
      "type": "function"
    },
    {
      "constant": true,
      "inputs": [
        {
          "internalType": "uint256",
          "name": "propIndex",
          "type": "uint256"
        }
      ],
      "name": "getName",
      "outputs": [
        {
          "internalType": "string",
          "name": "",
          "type": "string"
        }
      ],
      "payable": false,
      "stateMutability": "view",
      "type": "function"
    },
    {
      "constant": true,
      "inputs": [
        {
          "internalType": "uint256",
          "name": "propIndex",
          "type": "uint256"
        }
      ],
      "name": "getCreator",
      "outputs": [
        {
          "internalType": "address",
          "name": "",
          "type": "address"
        }
      ],
      "payable": false,
      "stateMutability": "view",
      "type": "function"
    },
    {
      "constant": true,
      "inputs": [
        {
          "internalType": "uint256",
          "name": "propIndex",
          "type": "uint256"
        }
      ],
      "name": "getSummary",
      "outputs": [
        {
          "internalType": "string",
          "name": "",
          "type": "string"
        }
      ],
      "payable": false,
      "stateMutability": "view",
      "type": "function"
    },
    {
      "constant": true,
      "inputs": [
        {
          "internalType": "uint256",
          "name": "propIndex",
          "type": "uint256"
        },
        {
          "internalType": "uint256",
          "name": "index",
          "type": "uint256"
        }
      ],
      "name": "getOptionName",
      "outputs": [
        {
          "internalType": "string",
          "name": "",
          "type": "string"
        }
      ],
      "payable": false,
      "stateMutability": "view",
      "type": "function"
    },
    {
      "constant": true,
      "inputs": [
        {
          "internalType": "uint256",
          "name": "propIndex",
          "type": "uint256"
        },
        {
          "internalType": "uint256",
          "name": "index",
          "type": "uint256"
        }
      ],
      "name": "getOptionVoteCount",
      "outputs": [
        {
          "internalType": "uint256",
          "name": "",
          "type": "uint256"
        }
      ],
      "payable": false,
      "stateMutability": "view",
      "type": "function"
    },
    {
      "constant": true,
      "inputs": [
        {
          "internalType": "uint256",
          "name": "propIndex",
          "type": "uint256"
        },
        {
          "internalType": "uint256",
          "name": "index",
          "type": "uint256"
        }
      ],
      "name": "getOptionCreator",
      "outputs": [
        {
          "internalType": "address",
          "name": "",
          "type": "address"
        }
      ],
      "payable": false,
      "stateMutability": "view",
      "type": "function"
    },
    {
      "constant": true,
      "inputs": [
        {
          "internalType": "uint256",
          "name": "propIndex",
          "type": "uint256"
        },
        {
          "internalType": "uint256",
          "name": "index",
          "type": "uint256"
        }
      ],
      "name": "getOptionSummary",
      "outputs": [
        {
          "internalType": "string",
          "name": "",
          "type": "string"
        }
      ],
      "payable": false,
      "stateMutability": "view",
      "type": "function"
    }
  ],
  "bytecode": "0x60806040523480156200001157600080fd5b50600080819055506200009860006040518060400160405280600a81526020017f47616d6520547970657300000000000000000000000000000000000000000000815250336040518060400160405280601181526020017f576861742074797065206f662067616d650000000000000000000000000000008152506200011d60201b60201c565b6200011760016040518060400160405280600e81526020017f4f746865722050726f706f73616c000000000000000000000000000000000000815250336040518060400160405280601f81526020017f57686174206b696e64206f662067616d6520646f20796f7520707265666572008152506200011d60201b60201c565b620003d6565b606060026040518060a001604052808781526020018681526020018573ffffffffffffffffffffffffffffffffffffffff1681526020018481526020018381525090806001815401808255809150509060018203906000526020600020906005020160009091929091909150600082015181600001556020820151816001019080519060200190620001b192919062000252565b5060408201518160020160006101000a81548173ffffffffffffffffffffffffffffffffffffffff021916908373ffffffffffffffffffffffffffffffffffffffff16021790555060608201518160030190805190602001906200021792919062000252565b50608082015181600401908051906020019062000236929190620002d9565b5050505060008081548092919060010191905055505050505050565b828054600181600116156101000203166002900490600052602060002090601f016020900481019282601f106200029557805160ff1916838001178555620002c6565b82800160010185558215620002c6579182015b82811115620002c5578251825591602001919060010190620002a8565b5b509050620002d5919062000368565b5090565b82805482825590600052602060002090810192821562000355579160200282015b82811115620003545782518260006101000a81548173ffffffffffffffffffffffffffffffffffffffff021916908373ffffffffffffffffffffffffffffffffffffffff16021790555091602001919060010190620002fa565b5b50905062000364919062000390565b5090565b6200038d91905b80821115620003895760008160009055506001016200036f565b5090565b90565b620003d391905b80821115620003cf57600081816101000a81549073ffffffffffffffffffffffffffffffffffffffff02191690555060010162000397565b5090565b90565b61129180620003e66000396000f3fe608060405234801561001057600080fd5b506004361061009e5760003560e01c80636b8ff574116100665780636b8ff57414610487578063956f74b61461052e578063aee14460146105a6578063d48e638a1461064d578063e44089b9146106bb5761009e565b806304b07cc8146100a357806333bc7bf0146101545780633d9f55e71461017257806345e5d220146102bf57806363e9a61d1461043b575b600080fd5b6100d9600480360360408110156100b957600080fd5b81019080803590602001909291908035906020019092919050505061076c565b6040518080602001828103825283818151815260200191508051906020019080838360005b838110156101195780820151818401526020810190506100fe565b50505050905090810190601f1680156101465780820380516001836020036101000a031916815260200191505b509250505060405180910390f35b61015c610908565b6040518082815260200191505060405180910390f35b61019e6004803603602081101561018857600080fd5b810190808035906020019092919050505061090e565b60405180858152602001806020018473ffffffffffffffffffffffffffffffffffffffff1673ffffffffffffffffffffffffffffffffffffffff16815260200180602001838103835286818151815260200191508051906020019080838360005b8381101561021a5780820151818401526020810190506101ff565b50505050905090810190601f1680156102475780820380516001836020036101000a031916815260200191505b50838103825284818151815260200191508051906020019080838360005b83811015610280578082015181840152602081019050610265565b50505050905090810190601f1680156102ad5780820380516001836020036101000a031916815260200191505b50965050505050505060405180910390f35b610439600480360360808110156102d557600080fd5b8101908080359060200190929190803590602001906401000000008111156102fc57600080fd5b82018360208201111561030e57600080fd5b8035906020019184600183028401116401000000008311171561033057600080fd5b91908080601f016020809104026020016040519081016040528093929190818152602001838380828437600081840152601f19601f820116905080830192505050505050509192919290803573ffffffffffffffffffffffffffffffffffffffff169060200190929190803590602001906401000000008111156103b357600080fd5b8201836020820111156103c557600080fd5b803590602001918460018302840111640100000000831117156103e757600080fd5b91908080601f016020809104026020016040519081016040528093929190818152602001838380828437600081840152601f19601f820116905080830192505050505050509192919290505050610a9b565b005b6104716004803603604081101561045157600080fd5b810190808035906020019092919080359060200190929190505050610bca565b6040518082815260200191505060405180910390f35b6104b36004803603602081101561049d57600080fd5b8101908080359060200190929190505050610ca8565b6040518080602001828103825283818151815260200191508051906020019080838360005b838110156104f35780820151818401526020810190506104d8565b50505050905090810190601f1680156105205780820380516001836020036101000a031916815260200191505b509250505060405180910390f35b6105646004803603604081101561054457600080fd5b810190808035906020019092919080359060200190929190505050610d68565b604051808273ffffffffffffffffffffffffffffffffffffffff1673ffffffffffffffffffffffffffffffffffffffff16815260200191505060405180910390f35b6105d2600480360360208110156105bc57600080fd5b8101908080359060200190929190505050610e46565b6040518080602001828103825283818151815260200191508051906020019080838360005b838110156106125780820151818401526020810190506105f7565b50505050905090810190601f16801561063f5780820380516001836020036101000a031916815260200191505b509250505060405180910390f35b6106796004803603602081101561066357600080fd5b8101908080359060200190929190505050610f06565b604051808273ffffffffffffffffffffffffffffffffffffffff1673ffffffffffffffffffffffffffffffffffffffff16815260200191505060405180910390f35b6106f1600480360360408110156106d157600080fd5b810190808035906020019092919080359060200190929190505050610f4e565b6040518080602001828103825283818151815260200191508051906020019080838360005b83811015610731578082015181840152602081019050610716565b50505050905090810190601f16801561075e5780820380516001836020036101000a031916815260200191505b509250505060405180910390f35b60606002838154811061077b57fe5b9060005260206000209060050201600401828154811061079757fe5b9060005260206000200160009054906101000a900473ffffffffffffffffffffffffffffffffffffffff1673ffffffffffffffffffffffffffffffffffffffff166317d7de7c6040518163ffffffff1660e01b815260040160006040518083038186803b15801561080757600080fd5b505afa15801561081b573d6000803e3d6000fd5b505050506040513d6000823e3d601f19601f82011682018060405250602081101561084557600080fd5b810190808051604051939291908464010000000082111561086557600080fd5b8382019150602082018581111561087b57600080fd5b825186600182028301116401000000008211171561089857600080fd5b8083526020830192505050908051906020019080838360005b838110156108cc5780820151818401526020810190506108b1565b50505050905090810190601f1680156108f95780820380516001836020036101000a031916815260200191505b50604052505050905092915050565b60005481565b6002818154811061091b57fe5b9060005260206000209060050201600091509050806000015490806001018054600181600116156101000203166002900480601f0160208091040260200160405190810160405280929190818152602001828054600181600116156101000203166002900480156109cd5780601f106109a2576101008083540402835291602001916109cd565b820191906000526020600020905b8154815290600101906020018083116109b057829003601f168201915b5050505050908060020160009054906101000a900473ffffffffffffffffffffffffffffffffffffffff1690806003018054600181600116156101000203166002900480601f016020809104026020016040519081016040528092919081815260200182805460018160011615610100020316600290048015610a915780601f10610a6657610100808354040283529160200191610a91565b820191906000526020600020905b815481529060010190602001808311610a7457829003601f168201915b5050505050905084565b606060026040518060a001604052808781526020018681526020018573ffffffffffffffffffffffffffffffffffffffff1681526020018481526020018381525090806001815401808255809150509060018203906000526020600020906005020160009091929091909150600082015181600001556020820151816001019080519060200190610b2d9291906110ea565b5060408201518160020160006101000a81548173ffffffffffffffffffffffffffffffffffffffff021916908373ffffffffffffffffffffffffffffffffffffffff1602179055506060820151816003019080519060200190610b919291906110ea565b506080820151816004019080519060200190610bae92919061116a565b5050505060008081548092919060010191905055505050505050565b600060028381548110610bd957fe5b90600052602060002090600502016004018281548110610bf557fe5b9060005260206000200160009054906101000a900473ffffffffffffffffffffffffffffffffffffffff1673ffffffffffffffffffffffffffffffffffffffff1663e7b3387c6040518163ffffffff1660e01b815260040160206040518083038186803b158015610c6557600080fd5b505afa158015610c79573d6000803e3d6000fd5b505050506040513d6020811015610c8f57600080fd5b8101908080519060200190929190505050905092915050565b606060028281548110610cb757fe5b90600052602060002090600502016001018054600181600116156101000203166002900480601f016020809104026020016040519081016040528092919081815260200182805460018160011615610100020316600290048015610d5c5780601f10610d3157610100808354040283529160200191610d5c565b820191906000526020600020905b815481529060010190602001808311610d3f57829003601f168201915b50505050509050919050565b600060028381548110610d7757fe5b90600052602060002090600502016004018281548110610d9357fe5b9060005260206000200160009054906101000a900473ffffffffffffffffffffffffffffffffffffffff1673ffffffffffffffffffffffffffffffffffffffff16630ee2cb106040518163ffffffff1660e01b815260040160206040518083038186803b158015610e0357600080fd5b505afa158015610e17573d6000803e3d6000fd5b505050506040513d6020811015610e2d57600080fd5b8101908080519060200190929190505050905092915050565b606060028281548110610e5557fe5b90600052602060002090600502016003018054600181600116156101000203166002900480601f016020809104026020016040519081016040528092919081815260200182805460018160011615610100020316600290048015610efa5780601f10610ecf57610100808354040283529160200191610efa565b820191906000526020600020905b815481529060010190602001808311610edd57829003601f168201915b50505050509050919050565b600060028281548110610f1557fe5b906000526020600020906005020160020160009054906101000a900473ffffffffffffffffffffffffffffffffffffffff169050919050565b606060028381548110610f5d57fe5b90600052602060002090600502016004018281548110610f7957fe5b9060005260206000200160009054906101000a900473ffffffffffffffffffffffffffffffffffffffff1673ffffffffffffffffffffffffffffffffffffffff16634051ddac6040518163ffffffff1660e01b815260040160006040518083038186803b158015610fe957600080fd5b505afa158015610ffd573d6000803e3d6000fd5b505050506040513d6000823e3d601f19601f82011682018060405250602081101561102757600080fd5b810190808051604051939291908464010000000082111561104757600080fd5b8382019150602082018581111561105d57600080fd5b825186600182028301116401000000008211171561107a57600080fd5b8083526020830192505050908051906020019080838360005b838110156110ae578082015181840152602081019050611093565b50505050905090810190601f1680156110db5780820380516001836020036101000a031916815260200191505b50604052505050905092915050565b828054600181600116156101000203166002900490600052602060002090601f016020900481019282601f1061112b57805160ff1916838001178555611159565b82800160010185558215611159579182015b8281111561115857825182559160200191906001019061113d565b5b50905061116691906111f4565b5090565b8280548282559060005260206000209081019282156111e3579160200282015b828111156111e25782518260006101000a81548173ffffffffffffffffffffffffffffffffffffffff021916908373ffffffffffffffffffffffffffffffffffffffff1602179055509160200191906001019061118a565b5b5090506111f09190611219565b5090565b61121691905b808211156112125760008160009055506001016111fa565b5090565b90565b61125991905b8082111561125557600081816101000a81549073ffffffffffffffffffffffffffffffffffffffff02191690555060010161121f565b5090565b9056fea265627a7a723158200b2cb381e87b18716c4bb39629453d95316a1206701bbcd5f8fb18d515b0878f64736f6c63430005100032",
  "source": "pragma solidity >=0.5.11 <0.9.0;\r\n\r\ncontract ProposalList {\r\n    // ProposalList global data\r\n    uint public propCount;\r\n    mapping (uint => Proposal) proposals;\r\n    Proposal[] public propList;\r\n    mapping (uint => address) proposalCreators; // What is the point of this mapping?\r\n\r\n    struct Proposal{\r\n        uint id;\r\n        string name;\r\n        address creator;\r\n        string summary;\r\n        Option[] optionList;\r\n    }\r\n\r\n    constructor() public{\r\n        propCount = 0;\r\n        addProposal(0, \"Game Types\", msg.sender, \"What type of game\");\r\n        addProposal(1, \"Other Proposal\", msg.sender, \"What kind of game do you prefer\");\r\n    }\r\n\r\n    function addProposal (uint _id, string memory _name, address _creator, string memory _summary) public {\r\n        Option[] memory temp;\r\n        propList.push(Proposal(_id, _name, _creator, _summary, temp));\r\n        propCount ++;\r\n    }\r\n\r\n    // Proposal getters\r\n    function getName(uint propIndex) public view returns(string memory) {\r\n        return propList[propIndex].name;\r\n    }\r\n\r\n    function getCreator(uint propIndex) public view returns(address) {\r\n        return propList[propIndex].creator;\r\n    }\r\n\r\n    function getSummary(uint propIndex) public view returns(string memory) {\r\n        return propList[propIndex].summary;\r\n    }\r\n\r\n    // Option getters\r\n    function getOptionName(uint propIndex, uint index) public view returns(string memory){\r\n        return propList[propIndex].optionList[index].getName();\r\n    }\r\n\r\n    function getOptionVoteCount(uint propIndex, uint index) public view returns(uint) {\r\n        return propList[propIndex].optionList[index].getVoteCount();\r\n    }\r\n\r\n    function getOptionCreator(uint propIndex, uint index) public view returns(address) {\r\n        return propList[propIndex].optionList[index].getCreator();\r\n    }\r\n\r\n    function getOptionSummary(uint propIndex, uint index) public view returns(string memory) {\r\n        return propList[propIndex].optionList[index].getSummary();\r\n    }\r\n}\r\n\r\ncontract Option {\r\n    uint id;\r\n    string name;\r\n    uint voteCount;\r\n    address creator;\r\n    string summary;\r\n\r\n    mapping (uint => Option) options;\r\n    Option[] public optionDataArray;\r\n\r\n    constructor(uint _id, string memory _name, string memory _summary) public {\r\n        id = _id;\r\n        name = _name;\r\n        voteCount = 0;\r\n        creator = msg.sender;\r\n        summary = _summary;\r\n    }\r\n\r\n    function getName() public view returns(string memory) {\r\n        return name;\r\n    }\r\n\r\n    function getVoteCount() public view returns(uint) {\r\n        return voteCount;\r\n    }\r\n\r\n    function getCreator() public view returns(address) {\r\n        return creator;\r\n    }\r\n\r\n    function getSummary() public view returns(string memory) {\r\n        return summary;\r\n    }\r\n}",
  "sourcePath": "C:\\Users\\nolan\\345pi.eth\\contracts\\ProposalList.sol",
  "compiler": {
    "name": "solc",
    "version": "0.5.16+commit.9c3226ce.Emscripten.clang"
  },
  "schemaVersion": "3.4.4",
  "updatedAt": "2021-12-23T19:54:11.107Z",
  "networkType": "ethereum",
  "devdoc": {
    "methods": {}
  },
  "userdoc": {
    "methods": {}
  }
}