{
  "contractName": "ProposalList",
  "abi": [
    {
      "inputs": [],
      "payable": false,
      "stateMutability": "nonpayable",
      "type": "constructor"
    },
    {
      "constant": true,
      "inputs": [],
      "name": "propCount",
      "outputs": [
        {
          "internalType": "uint256",
          "name": "",
          "type": "uint256"
        }
      ],
      "payable": false,
      "stateMutability": "view",
      "type": "function"
    },
    {
      "constant": true,
      "inputs": [
        {
          "internalType": "uint256",
          "name": "",
          "type": "uint256"
        }
      ],
      "name": "propList",
      "outputs": [
        {
          "internalType": "uint256",
          "name": "id",
          "type": "uint256"
        },
        {
          "internalType": "string",
          "name": "name",
          "type": "string"
        },
        {
          "internalType": "address",
          "name": "creator",
          "type": "address"
        },
        {
          "internalType": "string",
          "name": "summary",
          "type": "string"
        }
      ],
      "payable": false,
      "stateMutability": "view",
      "type": "function"
    },
    {
      "constant": false,
      "inputs": [
        {
          "internalType": "uint256",
          "name": "_id",
          "type": "uint256"
        },
        {
          "internalType": "string",
          "name": "_name",
          "type": "string"
        },
        {
          "internalType": "address",
          "name": "_creator",
          "type": "address"
        },
        {
          "internalType": "string",
          "name": "_summary",
          "type": "string"
        }
      ],
      "name": "addProposal",
      "outputs": [],
      "payable": false,
      "stateMutability": "nonpayable",
      "type": "function"
    },
    {
      "constant": true,
      "inputs": [
        {
          "internalType": "uint256",
          "name": "propIndex",
          "type": "uint256"
        }
      ],
      "name": "getName",
      "outputs": [
        {
          "internalType": "string",
          "name": "",
          "type": "string"
        }
      ],
      "payable": false,
      "stateMutability": "view",
      "type": "function"
    },
    {
      "constant": true,
      "inputs": [
        {
          "internalType": "uint256",
          "name": "propIndex",
          "type": "uint256"
        }
      ],
      "name": "getCreator",
      "outputs": [
        {
          "internalType": "address",
          "name": "",
          "type": "address"
        }
      ],
      "payable": false,
      "stateMutability": "view",
      "type": "function"
    },
    {
      "constant": true,
      "inputs": [
        {
          "internalType": "uint256",
          "name": "propIndex",
          "type": "uint256"
        }
      ],
      "name": "getSummary",
      "outputs": [
        {
          "internalType": "string",
          "name": "",
          "type": "string"
        }
      ],
      "payable": false,
      "stateMutability": "view",
      "type": "function"
    },
    {
      "constant": true,
      "inputs": [
        {
          "internalType": "uint256",
          "name": "propIndex",
          "type": "uint256"
        },
        {
          "internalType": "uint256",
          "name": "index",
          "type": "uint256"
        }
      ],
      "name": "getOptionName",
      "outputs": [
        {
          "internalType": "string",
          "name": "",
          "type": "string"
        }
      ],
      "payable": false,
      "stateMutability": "view",
      "type": "function"
    },
    {
      "constant": true,
      "inputs": [
        {
          "internalType": "uint256",
          "name": "propIndex",
          "type": "uint256"
        },
        {
          "internalType": "uint256",
          "name": "index",
          "type": "uint256"
        }
      ],
      "name": "getOptionVoteCount",
      "outputs": [
        {
          "internalType": "uint256",
          "name": "",
          "type": "uint256"
        }
      ],
      "payable": false,
      "stateMutability": "view",
      "type": "function"
    },
    {
      "constant": true,
      "inputs": [
        {
          "internalType": "uint256",
          "name": "propIndex",
          "type": "uint256"
        },
        {
          "internalType": "uint256",
          "name": "index",
          "type": "uint256"
        }
      ],
      "name": "getOptionCreator",
      "outputs": [
        {
          "internalType": "address",
          "name": "",
          "type": "address"
        }
      ],
      "payable": false,
      "stateMutability": "view",
      "type": "function"
    },
    {
      "constant": true,
      "inputs": [
        {
          "internalType": "uint256",
          "name": "propIndex",
          "type": "uint256"
        },
        {
          "internalType": "uint256",
          "name": "index",
          "type": "uint256"
        }
      ],
      "name": "getOptionSummary",
      "outputs": [
        {
          "internalType": "string",
          "name": "",
          "type": "string"
        }
      ],
      "payable": false,
      "stateMutability": "view",
      "type": "function"
    },
    {
      "constant": false,
      "inputs": [
        {
          "internalType": "uint256",
          "name": "propIndex",
          "type": "uint256"
        },
        {
          "internalType": "uint256",
          "name": "_id",
          "type": "uint256"
        },
        {
          "internalType": "string",
          "name": "_name",
          "type": "string"
        },
        {
          "internalType": "string",
          "name": "_summary",
          "type": "string"
        }
      ],
      "name": "addOption",
      "outputs": [],
      "payable": false,
      "stateMutability": "nonpayable",
      "type": "function"
    }
  ],
  "bytecode": "0x60806040523480156200001157600080fd5b50600080819055506200009860006040518060400160405280600a81526020017f47616d6520547970657300000000000000000000000000000000000000000000815250336040518060400160405280601181526020017f576861742074797065206f662067616d650000000000000000000000000000008152506200019c60201b60201c565b6200011760016040518060400160405280600e81526020017f4f746865722050726f706f73616c000000000000000000000000000000000000815250336040518060400160405280601f81526020017f57686174206b696e64206f662067616d6520646f20796f7520707265666572008152506200019c60201b60201c565b620001966000806040518060400160405280600b81526020017f436c69636b2d42617365640000000000000000000000000000000000000000008152506040518060400160405280601881526020017f446f20796f75206c696b6520636c69636b2067616d65733f0000000000000000815250620002d160201b60201c565b62000608565b606060026040518060a001604052808781526020018681526020018573ffffffffffffffffffffffffffffffffffffffff16815260200184815260200183815250908060018154018082558091505090600182039060005260206000209060050201600090919290919091506000820151816000015560208201518160010190805190602001906200023092919062000476565b5060408201518160020160006101000a81548173ffffffffffffffffffffffffffffffffffffffff021916908373ffffffffffffffffffffffffffffffffffffffff16021790555060608201518160030190805190602001906200029692919062000476565b506080820151816004019080519060200190620002b5929190620004fd565b5050505060008081548092919060010191905055505050505050565b6000838383604051620002e4906200058c565b808481526020018060200180602001838103835285818151815260200191508051906020019080838360005b838110156200032d57808201518184015260208101905062000310565b50505050905090810190601f1680156200035b5780820380516001836020036101000a031916815260200191505b50838103825284818151815260200191508051906020019080838360005b838110156200039657808201518184015260208101905062000379565b50505050905090810190601f168015620003c45780820380516001836020036101000a031916815260200191505b5095505050505050604051809103906000f080158015620003e9573d6000803e3d6000fd5b50905060028581548110620003fa57fe5b90600052602060002090600502016004018190806001815401808255809150509060018203906000526020600020016000909192909190916101000a81548173ffffffffffffffffffffffffffffffffffffffff021916908373ffffffffffffffffffffffffffffffffffffffff160217905550505050505050565b828054600181600116156101000203166002900490600052602060002090601f016020900481019282601f10620004b957805160ff1916838001178555620004ea565b82800160010185558215620004ea579182015b82811115620004e9578251825591602001919060010190620004cc565b5b509050620004f991906200059a565b5090565b82805482825590600052602060002090810192821562000579579160200282015b82811115620005785782518260006101000a81548173ffffffffffffffffffffffffffffffffffffffff021916908373ffffffffffffffffffffffffffffffffffffffff160217905550916020019190600101906200051e565b5b509050620005889190620005c2565b5090565b61070a806200237083390190565b620005bf91905b80821115620005bb576000816000905550600101620005a1565b5090565b90565b6200060591905b808211156200060157600081816101000a81549073ffffffffffffffffffffffffffffffffffffffff021916905550600101620005c9565b5090565b90565b611d5880620006186000396000f3fe60806040523480156200001157600080fd5b5060043610620000b85760003560e01c806363e9a61d116200007b57806363e9a61d14620005de5780636b8ff574146200062d578063956f74b614620006da578063aee144601462000755578063d48e638a1462000802578063e44089b9146200087357620000b8565b806304b07cc814620000bd57806333bc7bf014620001745780633d9f55e7146200019457806345e5d22014620002ea5780635ba8db86146200046f575b600080fd5b620000f660048036036040811015620000d557600080fd5b8101908080359060200190929190803590602001909291905050506200092a565b6040518080602001828103825283818151815260200191508051906020019080838360005b83811015620001385780820151818401526020810190506200011b565b50505050905090810190601f168015620001665780820380516001836020036101000a031916815260200191505b509250505060405180910390f35b6200017e62000ad1565b6040518082815260200191505060405180910390f35b620001c360048036036020811015620001ac57600080fd5b810190808035906020019092919050505062000ad7565b60405180858152602001806020018473ffffffffffffffffffffffffffffffffffffffff1673ffffffffffffffffffffffffffffffffffffffff16815260200180602001838103835286818151815260200191508051906020019080838360005b838110156200024157808201518184015260208101905062000224565b50505050905090810190601f1680156200026f5780820380516001836020036101000a031916815260200191505b50838103825284818151815260200191508051906020019080838360005b83811015620002aa5780820151818401526020810190506200028d565b50505050905090810190601f168015620002d85780820380516001836020036101000a031916815260200191505b50965050505050505060405180910390f35b6200046d600480360360808110156200030257600080fd5b8101908080359060200190929190803590602001906401000000008111156200032a57600080fd5b8201836020820111156200033d57600080fd5b803590602001918460018302840111640100000000831117156200036057600080fd5b91908080601f016020809104026020016040519081016040528093929190818152602001838380828437600081840152601f19601f820116905080830192505050505050509192919290803573ffffffffffffffffffffffffffffffffffffffff16906020019092919080359060200190640100000000811115620003e457600080fd5b820183602082011115620003f757600080fd5b803590602001918460018302840111640100000000831117156200041a57600080fd5b91908080601f016020809104026020016040519081016040528093929190818152602001838380828437600081840152601f19601f82011690508083019250505050505050919291929050505062000c6d565b005b620005dc600480360360808110156200048757600080fd5b81019080803590602001909291908035906020019092919080359060200190640100000000811115620004b957600080fd5b820183602082011115620004cc57600080fd5b80359060200191846001830284011164010000000083111715620004ef57600080fd5b91908080601f016020809104026020016040519081016040528093929190818152602001838380828437600081840152601f19601f820116905080830192505050505050509192919290803590602001906401000000008111156200055357600080fd5b8201836020820111156200056657600080fd5b803590602001918460018302840111640100000000831117156200058957600080fd5b91908080601f016020809104026020016040519081016040528093929190818152602001838380828437600081840152601f19601f82011690508083019250505050505050919291929050505062000da2565b005b6200061760048036036040811015620005f657600080fd5b81019080803590602001909291908035906020019092919050505062000f47565b6040518082815260200191505060405180910390f35b6200065c600480360360208110156200064557600080fd5b81019080803590602001909291905050506200102a565b6040518080602001828103825283818151815260200191508051906020019080838360005b838110156200069e57808201518184015260208101905062000681565b50505050905090810190601f168015620006cc5780820380516001836020036101000a031916815260200191505b509250505060405180910390f35b6200071360048036036040811015620006f257600080fd5b810190808035906020019092919080359060200190929190505050620010ef565b604051808273ffffffffffffffffffffffffffffffffffffffff1673ffffffffffffffffffffffffffffffffffffffff16815260200191505060405180910390f35b62000784600480360360208110156200076d57600080fd5b8101908080359060200190929190505050620011d2565b6040518080602001828103825283818151815260200191508051906020019080838360005b83811015620007c6578082015181840152602081019050620007a9565b50505050905090810190601f168015620007f45780820380516001836020036101000a031916815260200191505b509250505060405180910390f35b62000831600480360360208110156200081a57600080fd5b810190808035906020019092919050505062001297565b604051808273ffffffffffffffffffffffffffffffffffffffff1673ffffffffffffffffffffffffffffffffffffffff16815260200191505060405180910390f35b620008ac600480360360408110156200088b57600080fd5b810190808035906020019092919080359060200190929190505050620012e0565b6040518080602001828103825283818151815260200191508051906020019080838360005b83811015620008ee578082015181840152602081019050620008d1565b50505050905090810190601f1680156200091c5780820380516001836020036101000a031916815260200191505b509250505060405180910390f35b6060600283815481106200093a57fe5b906000526020600020906005020160040182815481106200095757fe5b9060005260206000200160009054906101000a900473ffffffffffffffffffffffffffffffffffffffff1673ffffffffffffffffffffffffffffffffffffffff166317d7de7c6040518163ffffffff1660e01b815260040160006040518083038186803b158015620009c857600080fd5b505afa158015620009dd573d6000803e3d6000fd5b505050506040513d6000823e3d601f19601f82011682018060405250602081101562000a0857600080fd5b810190808051604051939291908464010000000082111562000a2957600080fd5b8382019150602082018581111562000a4057600080fd5b825186600182028301116401000000008211171562000a5e57600080fd5b8083526020830192505050908051906020019080838360005b8381101562000a9457808201518184015260208101905062000a77565b50505050905090810190601f16801562000ac25780820380516001836020036101000a031916815260200191505b50604052505050905092915050565b60005481565b6002818154811062000ae557fe5b9060005260206000209060050201600091509050806000015490806001018054600181600116156101000203166002900480601f01602080910402602001604051908101604052809291908181526020018280546001816001161561010002031660029004801562000b9b5780601f1062000b6f5761010080835404028352916020019162000b9b565b820191906000526020600020905b81548152906001019060200180831162000b7d57829003601f168201915b5050505050908060020160009054906101000a900473ffffffffffffffffffffffffffffffffffffffff1690806003018054600181600116156101000203166002900480601f01602080910402602001604051908101604052809291908181526020018280546001816001161561010002031660029004801562000c635780601f1062000c375761010080835404028352916020019162000c63565b820191906000526020600020905b81548152906001019060200180831162000c4557829003601f168201915b5050505050905084565b606060026040518060a001604052808781526020018681526020018573ffffffffffffffffffffffffffffffffffffffff168152602001848152602001838152509080600181540180825580915050906001820390600052602060002090600502016000909192909190915060008201518160000155602082015181600101908051906020019062000d0192919062001487565b5060408201518160020160006101000a81548173ffffffffffffffffffffffffffffffffffffffff021916908373ffffffffffffffffffffffffffffffffffffffff160217905550606082015181600301908051906020019062000d6792919062001487565b50608082015181600401908051906020019062000d869291906200150e565b5050505060008081548092919060010191905055505050505050565b600083838360405162000db5906200159d565b808481526020018060200180602001838103835285818151815260200191508051906020019080838360005b8381101562000dfe57808201518184015260208101905062000de1565b50505050905090810190601f16801562000e2c5780820380516001836020036101000a031916815260200191505b50838103825284818151815260200191508051906020019080838360005b8381101562000e6757808201518184015260208101905062000e4a565b50505050905090810190601f16801562000e955780820380516001836020036101000a031916815260200191505b5095505050505050604051809103906000f08015801562000eba573d6000803e3d6000fd5b5090506002858154811062000ecb57fe5b90600052602060002090600502016004018190806001815401808255809150509060018203906000526020600020016000909192909190916101000a81548173ffffffffffffffffffffffffffffffffffffffff021916908373ffffffffffffffffffffffffffffffffffffffff160217905550505050505050565b60006002838154811062000f5757fe5b9060005260206000209060050201600401828154811062000f7457fe5b9060005260206000200160009054906101000a900473ffffffffffffffffffffffffffffffffffffffff1673ffffffffffffffffffffffffffffffffffffffff1663e7b3387c6040518163ffffffff1660e01b815260040160206040518083038186803b15801562000fe557600080fd5b505afa15801562000ffa573d6000803e3d6000fd5b505050506040513d60208110156200101157600080fd5b8101908080519060200190929190505050905092915050565b6060600282815481106200103a57fe5b90600052602060002090600502016001018054600181600116156101000203166002900480601f016020809104026020016040519081016040528092919081815260200182805460018160011615610100020316600290048015620010e35780601f10620010b757610100808354040283529160200191620010e3565b820191906000526020600020905b815481529060010190602001808311620010c557829003601f168201915b50505050509050919050565b600060028381548110620010ff57fe5b906000526020600020906005020160040182815481106200111c57fe5b9060005260206000200160009054906101000a900473ffffffffffffffffffffffffffffffffffffffff1673ffffffffffffffffffffffffffffffffffffffff16630ee2cb106040518163ffffffff1660e01b815260040160206040518083038186803b1580156200118d57600080fd5b505afa158015620011a2573d6000803e3d6000fd5b505050506040513d6020811015620011b957600080fd5b8101908080519060200190929190505050905092915050565b606060028281548110620011e257fe5b90600052602060002090600502016003018054600181600116156101000203166002900480601f0160208091040260200160405190810160405280929190818152602001828054600181600116156101000203166002900480156200128b5780601f106200125f576101008083540402835291602001916200128b565b820191906000526020600020905b8154815290600101906020018083116200126d57829003601f168201915b50505050509050919050565b600060028281548110620012a757fe5b906000526020600020906005020160020160009054906101000a900473ffffffffffffffffffffffffffffffffffffffff169050919050565b606060028381548110620012f057fe5b906000526020600020906005020160040182815481106200130d57fe5b9060005260206000200160009054906101000a900473ffffffffffffffffffffffffffffffffffffffff1673ffffffffffffffffffffffffffffffffffffffff16634051ddac6040518163ffffffff1660e01b815260040160006040518083038186803b1580156200137e57600080fd5b505afa15801562001393573d6000803e3d6000fd5b505050506040513d6000823e3d601f19601f820116820180604052506020811015620013be57600080fd5b8101908080516040519392919084640100000000821115620013df57600080fd5b83820191506020820185811115620013f657600080fd5b82518660018202830111640100000000821117156200141457600080fd5b8083526020830192505050908051906020019080838360005b838110156200144a5780820151818401526020810190506200142d565b50505050905090810190601f168015620014785780820380516001836020036101000a031916815260200191505b50604052505050905092915050565b828054600181600116156101000203166002900490600052602060002090601f016020900481019282601f10620014ca57805160ff1916838001178555620014fb565b82800160010185558215620014fb579182015b82811115620014fa578251825591602001919060010190620014dd565b5b5090506200150a9190620015ab565b5090565b8280548282559060005260206000209081019282156200158a579160200282015b82811115620015895782518260006101000a81548173ffffffffffffffffffffffffffffffffffffffff021916908373ffffffffffffffffffffffffffffffffffffffff160217905550916020019190600101906200152f565b5b509050620015999190620015d3565b5090565b61070a806200161a83390190565b620015d091905b80821115620015cc576000816000905550600101620015b2565b5090565b90565b6200161691905b808211156200161257600081816101000a81549073ffffffffffffffffffffffffffffffffffffffff021916905550600101620015da565b5090565b9056fe608060405234801561001057600080fd5b5060405161070a38038061070a8339818101604052606081101561003357600080fd5b81019080805190602001909291908051604051939291908464010000000082111561005d57600080fd5b8382019150602082018581111561007357600080fd5b825186600182028301116401000000008211171561009057600080fd5b8083526020830192505050908051906020019080838360005b838110156100c45780820151818401526020810190506100a9565b50505050905090810190601f1680156100f15780820380516001836020036101000a031916815260200191505b506040526020018051604051939291908464010000000082111561011457600080fd5b8382019150602082018581111561012a57600080fd5b825186600182028301116401000000008211171561014757600080fd5b8083526020830192505050908051906020019080838360005b8381101561017b578082015181840152602081019050610160565b50505050905090810190601f1680156101a85780820380516001836020036101000a031916815260200191505b506040525050508260008190555081600190805190602001906101cc929190610235565b50600060028190555033600360006101000a81548173ffffffffffffffffffffffffffffffffffffffff021916908373ffffffffffffffffffffffffffffffffffffffff160217905550806004908051906020019061022c929190610235565b505050506102da565b828054600181600116156101000203166002900490600052602060002090601f016020900481019282601f1061027657805160ff19168380011785556102a4565b828001600101855582156102a4579182015b828111156102a3578251825591602001919060010190610288565b5b5090506102b191906102b5565b5090565b6102d791905b808211156102d35760008160009055506001016102bb565b5090565b90565b610421806102e96000396000f3fe608060405234801561001057600080fd5b50600436106100575760003560e01c806305a77cfe1461005c5780630ee2cb10146100ca57806317d7de7c146101145780634051ddac14610197578063e7b3387c1461021a575b600080fd5b6100886004803603602081101561007257600080fd5b8101908080359060200190929190505050610238565b604051808273ffffffffffffffffffffffffffffffffffffffff1673ffffffffffffffffffffffffffffffffffffffff16815260200191505060405180910390f35b6100d2610274565b604051808273ffffffffffffffffffffffffffffffffffffffff1673ffffffffffffffffffffffffffffffffffffffff16815260200191505060405180910390f35b61011c61029e565b6040518080602001828103825283818151815260200191508051906020019080838360005b8381101561015c578082015181840152602081019050610141565b50505050905090810190601f1680156101895780820380516001836020036101000a031916815260200191505b509250505060405180910390f35b61019f610340565b6040518080602001828103825283818151815260200191508051906020019080838360005b838110156101df5780820151818401526020810190506101c4565b50505050905090810190601f16801561020c5780820380516001836020036101000a031916815260200191505b509250505060405180910390f35b6102226103e2565b6040518082815260200191505060405180910390f35b6006818154811061024557fe5b906000526020600020016000915054906101000a900473ffffffffffffffffffffffffffffffffffffffff1681565b6000600360009054906101000a900473ffffffffffffffffffffffffffffffffffffffff16905090565b606060018054600181600116156101000203166002900480601f0160208091040260200160405190810160405280929190818152602001828054600181600116156101000203166002900480156103365780601f1061030b57610100808354040283529160200191610336565b820191906000526020600020905b81548152906001019060200180831161031957829003601f168201915b5050505050905090565b606060048054600181600116156101000203166002900480601f0160208091040260200160405190810160405280929190818152602001828054600181600116156101000203166002900480156103d85780601f106103ad576101008083540402835291602001916103d8565b820191906000526020600020905b8154815290600101906020018083116103bb57829003601f168201915b5050505050905090565b600060025490509056fea265627a7a72315820aefd7c5dcc1fa480bf8b463ad087d7b2d1f8b2ba675d025df3e14ff24f4d09d964736f6c63430005100032a265627a7a7231582011be5904ce9a6c46263e8f6a689577b4a9aedfb8299ff113e4b138f15a646c5564736f6c63430005100032608060405234801561001057600080fd5b5060405161070a38038061070a8339818101604052606081101561003357600080fd5b81019080805190602001909291908051604051939291908464010000000082111561005d57600080fd5b8382019150602082018581111561007357600080fd5b825186600182028301116401000000008211171561009057600080fd5b8083526020830192505050908051906020019080838360005b838110156100c45780820151818401526020810190506100a9565b50505050905090810190601f1680156100f15780820380516001836020036101000a031916815260200191505b506040526020018051604051939291908464010000000082111561011457600080fd5b8382019150602082018581111561012a57600080fd5b825186600182028301116401000000008211171561014757600080fd5b8083526020830192505050908051906020019080838360005b8381101561017b578082015181840152602081019050610160565b50505050905090810190601f1680156101a85780820380516001836020036101000a031916815260200191505b506040525050508260008190555081600190805190602001906101cc929190610235565b50600060028190555033600360006101000a81548173ffffffffffffffffffffffffffffffffffffffff021916908373ffffffffffffffffffffffffffffffffffffffff160217905550806004908051906020019061022c929190610235565b505050506102da565b828054600181600116156101000203166002900490600052602060002090601f016020900481019282601f1061027657805160ff19168380011785556102a4565b828001600101855582156102a4579182015b828111156102a3578251825591602001919060010190610288565b5b5090506102b191906102b5565b5090565b6102d791905b808211156102d35760008160009055506001016102bb565b5090565b90565b610421806102e96000396000f3fe608060405234801561001057600080fd5b50600436106100575760003560e01c806305a77cfe1461005c5780630ee2cb10146100ca57806317d7de7c146101145780634051ddac14610197578063e7b3387c1461021a575b600080fd5b6100886004803603602081101561007257600080fd5b8101908080359060200190929190505050610238565b604051808273ffffffffffffffffffffffffffffffffffffffff1673ffffffffffffffffffffffffffffffffffffffff16815260200191505060405180910390f35b6100d2610274565b604051808273ffffffffffffffffffffffffffffffffffffffff1673ffffffffffffffffffffffffffffffffffffffff16815260200191505060405180910390f35b61011c61029e565b6040518080602001828103825283818151815260200191508051906020019080838360005b8381101561015c578082015181840152602081019050610141565b50505050905090810190601f1680156101895780820380516001836020036101000a031916815260200191505b509250505060405180910390f35b61019f610340565b6040518080602001828103825283818151815260200191508051906020019080838360005b838110156101df5780820151818401526020810190506101c4565b50505050905090810190601f16801561020c5780820380516001836020036101000a031916815260200191505b509250505060405180910390f35b6102226103e2565b6040518082815260200191505060405180910390f35b6006818154811061024557fe5b906000526020600020016000915054906101000a900473ffffffffffffffffffffffffffffffffffffffff1681565b6000600360009054906101000a900473ffffffffffffffffffffffffffffffffffffffff16905090565b606060018054600181600116156101000203166002900480601f0160208091040260200160405190810160405280929190818152602001828054600181600116156101000203166002900480156103365780601f1061030b57610100808354040283529160200191610336565b820191906000526020600020905b81548152906001019060200180831161031957829003601f168201915b5050505050905090565b606060048054600181600116156101000203166002900480601f0160208091040260200160405190810160405280929190818152602001828054600181600116156101000203166002900480156103d85780601f106103ad576101008083540402835291602001916103d8565b820191906000526020600020905b8154815290600101906020018083116103bb57829003601f168201915b5050505050905090565b600060025490509056fea265627a7a72315820aefd7c5dcc1fa480bf8b463ad087d7b2d1f8b2ba675d025df3e14ff24f4d09d964736f6c63430005100032",
  "source": "pragma solidity >=0.5.11 <0.9.0;\n\ncontract ProposalList {\n    // ProposalList global data\n    uint public propCount;\n    mapping (uint => Proposal) proposals;\n    Proposal[] public propList;\n    mapping (uint => address) proposalCreators; // What is the point of this mapping?\n\n    struct Proposal{\n        uint id;\n        string name;\n        address creator;\n        string summary;\n        Option[] optionList;\n    }\n\n    constructor() public{\n        propCount = 0;\n        addProposal(0, \"Game Types\", msg.sender, \"What type of game\");\n        addProposal(1, \"Other Proposal\", msg.sender, \"What kind of game do you prefer\");\n        addOption(0,0, \"Click-Based\", \"Do you like click games?\");\n    }\n\n    function addProposal (uint _id, string memory _name, address _creator, string memory _summary) public {\n        Option[] memory temp;\n        propList.push(Proposal(_id, _name, _creator, _summary, temp));\n        propCount ++;\n    }\n\n    // Proposal getters\n    function getName(uint propIndex) public view returns(string memory) {\n        return propList[propIndex].name;\n    }\n\n    function getCreator(uint propIndex) public view returns(address) {\n        return propList[propIndex].creator;\n    }\n\n    function getSummary(uint propIndex) public view returns(string memory) {\n        return propList[propIndex].summary;\n    }\n\n    // Option getters\n    function getOptionName(uint propIndex, uint index) public view returns(string memory){\n        return propList[propIndex].optionList[index].getName();\n    }\n\n    function getOptionVoteCount(uint propIndex, uint index) public view returns(uint) {\n        return propList[propIndex].optionList[index].getVoteCount();\n    }\n\n    function getOptionCreator(uint propIndex, uint index) public view returns(address) {\n        return propList[propIndex].optionList[index].getCreator();\n    }\n\n    function getOptionSummary(uint propIndex, uint index) public view returns(string memory) {\n        return propList[propIndex].optionList[index].getSummary();\n    }\n    function addOption(uint propIndex, uint _id, string memory _name, string memory _summary)  public{\n        Option temp = new Option(_id, _name,_summary);\n        propList[propIndex].optionList.push(temp);\n    }\n}\n\ncontract Option {\n    uint id;\n    string name;\n    uint voteCount;\n    address creator;\n    string summary;\n\n    mapping (uint => Option) options;\n    Option[] public optionDataArray;\n\n    constructor(uint _id, string memory _name, string memory _summary) public {\n        id = _id;\n        name = _name;\n        voteCount = 0;\n        creator = msg.sender;\n        summary = _summary;\n    }\n\n    function getName() public view returns(string memory) {\n        return name;\n    }\n\n    function getVoteCount() public view returns(uint) {\n        return voteCount;\n    }\n\n    function getCreator() public view returns(address) {\n        return creator;\n    }\n\n    function getSummary() public view returns(string memory) {\n        return summary;\n    }\n}",
  "sourcePath": "/Users/aryanchaudhary/Desktop/345pi.eth/contracts/ProposalList.sol",
  "compiler": {
    "name": "solc",
    "version": "0.5.16+commit.9c3226ce.Emscripten.clang"
  },
  "schemaVersion": "3.4.3",
  "updatedAt": "2021-12-27T17:24:13.339Z",
  "networkType": "ethereum",
  "devdoc": {
    "methods": {}
  },
  "userdoc": {
    "methods": {}
  }
}